{
  "contractName": "CalvaToken",
  "abi": [
    {
      "inputs": [],
      "stateMutability": "nonpayable",
      "type": "constructor"
    },
    {
      "anonymous": false,
      "inputs": [
        {
          "indexed": true,
          "internalType": "address",
          "name": "owner",
          "type": "address"
        },
        {
          "indexed": true,
          "internalType": "address",
          "name": "spender",
          "type": "address"
        },
        {
          "indexed": false,
          "internalType": "uint256",
          "name": "value",
          "type": "uint256"
        }
      ],
      "name": "Approval",
      "type": "event"
    },
    {
      "anonymous": false,
      "inputs": [
        {
          "indexed": true,
          "internalType": "address",
          "name": "previousOwner",
          "type": "address"
        },
        {
          "indexed": true,
          "internalType": "address",
          "name": "newOwner",
          "type": "address"
        }
      ],
      "name": "OwnershipTransferred",
      "type": "event"
    },
    {
      "anonymous": false,
      "inputs": [
        {
          "indexed": false,
          "internalType": "address",
          "name": "account",
          "type": "address"
        }
      ],
      "name": "Paused",
      "type": "event"
    },
    {
      "anonymous": false,
      "inputs": [
        {
          "indexed": true,
          "internalType": "address",
          "name": "from",
          "type": "address"
        },
        {
          "indexed": true,
          "internalType": "address",
          "name": "to",
          "type": "address"
        },
        {
          "indexed": false,
          "internalType": "uint256",
          "name": "value",
          "type": "uint256"
        }
      ],
      "name": "Transfer",
      "type": "event"
    },
    {
      "anonymous": false,
      "inputs": [
        {
          "indexed": false,
          "internalType": "address",
          "name": "account",
          "type": "address"
        }
      ],
      "name": "Unpaused",
      "type": "event"
    },
    {
      "inputs": [],
      "name": "DOMAIN_SEPARATOR",
      "outputs": [
        {
          "internalType": "bytes32",
          "name": "",
          "type": "bytes32"
        }
      ],
      "stateMutability": "view",
      "type": "function"
    },
    {
      "inputs": [
        {
          "internalType": "address",
          "name": "owner",
          "type": "address"
        },
        {
          "internalType": "address",
          "name": "spender",
          "type": "address"
        }
      ],
      "name": "allowance",
      "outputs": [
        {
          "internalType": "uint256",
          "name": "",
          "type": "uint256"
        }
      ],
      "stateMutability": "view",
      "type": "function"
    },
    {
      "inputs": [
        {
          "internalType": "address",
          "name": "spender",
          "type": "address"
        },
        {
          "internalType": "uint256",
          "name": "amount",
          "type": "uint256"
        }
      ],
      "name": "approve",
      "outputs": [
        {
          "internalType": "bool",
          "name": "",
          "type": "bool"
        }
      ],
      "stateMutability": "nonpayable",
      "type": "function"
    },
    {
      "inputs": [
        {
          "internalType": "address",
          "name": "account",
          "type": "address"
        }
      ],
      "name": "balanceOf",
      "outputs": [
        {
          "internalType": "uint256",
          "name": "",
          "type": "uint256"
        }
      ],
      "stateMutability": "view",
      "type": "function"
    },
    {
      "inputs": [
        {
          "internalType": "uint256",
          "name": "amount",
          "type": "uint256"
        }
      ],
      "name": "burn",
      "outputs": [],
      "stateMutability": "nonpayable",
      "type": "function"
    },
    {
      "inputs": [
        {
          "internalType": "address",
          "name": "account",
          "type": "address"
        },
        {
          "internalType": "uint256",
          "name": "amount",
          "type": "uint256"
        }
      ],
      "name": "burnFrom",
      "outputs": [],
      "stateMutability": "nonpayable",
      "type": "function"
    },
    {
      "inputs": [],
      "name": "decimals",
      "outputs": [
        {
          "internalType": "uint8",
          "name": "",
          "type": "uint8"
        }
      ],
      "stateMutability": "view",
      "type": "function"
    },
    {
      "inputs": [
        {
          "internalType": "address",
          "name": "spender",
          "type": "address"
        },
        {
          "internalType": "uint256",
          "name": "subtractedValue",
          "type": "uint256"
        }
      ],
      "name": "decreaseAllowance",
      "outputs": [
        {
          "internalType": "bool",
          "name": "",
          "type": "bool"
        }
      ],
      "stateMutability": "nonpayable",
      "type": "function"
    },
    {
      "inputs": [
        {
          "internalType": "address",
          "name": "spender",
          "type": "address"
        },
        {
          "internalType": "uint256",
          "name": "addedValue",
          "type": "uint256"
        }
      ],
      "name": "increaseAllowance",
      "outputs": [
        {
          "internalType": "bool",
          "name": "",
          "type": "bool"
        }
      ],
      "stateMutability": "nonpayable",
      "type": "function"
    },
    {
      "inputs": [],
      "name": "name",
      "outputs": [
        {
          "internalType": "string",
          "name": "",
          "type": "string"
        }
      ],
      "stateMutability": "view",
      "type": "function"
    },
    {
      "inputs": [
        {
          "internalType": "address",
          "name": "owner",
          "type": "address"
        }
      ],
      "name": "nonces",
      "outputs": [
        {
          "internalType": "uint256",
          "name": "",
          "type": "uint256"
        }
      ],
      "stateMutability": "view",
      "type": "function"
    },
    {
      "inputs": [],
      "name": "owner",
      "outputs": [
        {
          "internalType": "address",
          "name": "",
          "type": "address"
        }
      ],
      "stateMutability": "view",
      "type": "function"
    },
    {
      "inputs": [],
      "name": "paused",
      "outputs": [
        {
          "internalType": "bool",
          "name": "",
          "type": "bool"
        }
      ],
      "stateMutability": "view",
      "type": "function"
    },
    {
      "inputs": [
        {
          "internalType": "address",
          "name": "owner",
          "type": "address"
        },
        {
          "internalType": "address",
          "name": "spender",
          "type": "address"
        },
        {
          "internalType": "uint256",
          "name": "value",
          "type": "uint256"
        },
        {
          "internalType": "uint256",
          "name": "deadline",
          "type": "uint256"
        },
        {
          "internalType": "uint8",
          "name": "v",
          "type": "uint8"
        },
        {
          "internalType": "bytes32",
          "name": "r",
          "type": "bytes32"
        },
        {
          "internalType": "bytes32",
          "name": "s",
          "type": "bytes32"
        }
      ],
      "name": "permit",
      "outputs": [],
      "stateMutability": "nonpayable",
      "type": "function"
    },
    {
      "inputs": [],
      "name": "renounceOwnership",
      "outputs": [],
      "stateMutability": "nonpayable",
      "type": "function"
    },
    {
      "inputs": [],
      "name": "symbol",
      "outputs": [
        {
          "internalType": "string",
          "name": "",
          "type": "string"
        }
      ],
      "stateMutability": "view",
      "type": "function"
    },
    {
      "inputs": [],
      "name": "totalSupply",
      "outputs": [
        {
          "internalType": "uint256",
          "name": "",
          "type": "uint256"
        }
      ],
      "stateMutability": "view",
      "type": "function"
    },
    {
      "inputs": [
        {
          "internalType": "address",
          "name": "recipient",
          "type": "address"
        },
        {
          "internalType": "uint256",
          "name": "amount",
          "type": "uint256"
        }
      ],
      "name": "transfer",
      "outputs": [
        {
          "internalType": "bool",
          "name": "",
          "type": "bool"
        }
      ],
      "stateMutability": "nonpayable",
      "type": "function"
    },
    {
      "inputs": [
        {
          "internalType": "address",
          "name": "sender",
          "type": "address"
        },
        {
          "internalType": "address",
          "name": "recipient",
          "type": "address"
        },
        {
          "internalType": "uint256",
          "name": "amount",
          "type": "uint256"
        }
      ],
      "name": "transferFrom",
      "outputs": [
        {
          "internalType": "bool",
          "name": "",
          "type": "bool"
        }
      ],
      "stateMutability": "nonpayable",
      "type": "function"
    },
    {
      "inputs": [
        {
          "internalType": "address",
          "name": "newOwner",
          "type": "address"
        }
      ],
      "name": "transferOwnership",
      "outputs": [],
      "stateMutability": "nonpayable",
      "type": "function"
    },
    {
      "inputs": [],
      "name": "pause",
      "outputs": [],
      "stateMutability": "nonpayable",
      "type": "function"
    },
    {
      "inputs": [],
      "name": "unpause",
      "outputs": [],
      "stateMutability": "nonpayable",
      "type": "function"
    },
    {
      "inputs": [
        {
          "internalType": "address",
          "name": "to",
          "type": "address"
        },
        {
          "internalType": "uint256",
          "name": "amount",
          "type": "uint256"
        }
      ],
      "name": "mint",
      "outputs": [],
      "stateMutability": "nonpayable",
      "type": "function"
    }
  ],
  "bytecode": "0x6101406040527f6e71edae12b1b97f4d1f60370fef10105fa2faae0126114a169c64845d6126c9610120908152503480156200003a57600080fd5b506040518060400160405280600a81526020017f43616c7661546f6b656e00000000000000000000000000000000000000000000815250806040518060400160405280600181526020017f31000000000000000000000000000000000000000000000000000000000000008152506040518060400160405280600a81526020017f43616c7661546f6b656e000000000000000000000000000000000000000000008152506040518060400160405280600381526020017f434c56000000000000000000000000000000000000000000000000000000000081525081600390805190602001906200012c92919062000563565b5080600490805190602001906200014592919062000563565b5050506000600560006101000a81548160ff02191690831515021790555062000183620001776200024660201b60201c565b6200024e60201b60201c565b60008280519060200120905060008280519060200120905060007f8b73c3c69bb8fe3d512ecc4cf759cc79239f7b179b0ffacaa9a75d522b39400f90508260c081815250508160e081815250504660a08181525050620001eb8184846200031460201b60201c565b608081815250508061010081815250505050505050506200024033620002166200035060201b60201c565b600a6200022491906200081b565b620f424062000234919062000958565b6200035960201b60201c565b62000b01565b600033905090565b6000600560019054906101000a900473ffffffffffffffffffffffffffffffffffffffff16905081600560016101000a81548173ffffffffffffffffffffffffffffffffffffffff021916908373ffffffffffffffffffffffffffffffffffffffff1602179055508173ffffffffffffffffffffffffffffffffffffffff168173ffffffffffffffffffffffffffffffffffffffff167f8be0079c531659141344cd1fd0a4f28419497f9722a3daafe3b4186f6b6457e060405160405180910390a35050565b600083838346306040516020016200033195949392919062000694565b6040516020818303038152906040528051906020012090509392505050565b60006012905090565b600073ffffffffffffffffffffffffffffffffffffffff168273ffffffffffffffffffffffffffffffffffffffff161415620003cc576040517f08c379a0000000000000000000000000000000000000000000000000000000008152600401620003c39062000713565b60405180910390fd5b620003e060008383620004d260201b60201c565b8060026000828254620003f4919062000763565b92505081905550806000808473ffffffffffffffffffffffffffffffffffffffff1673ffffffffffffffffffffffffffffffffffffffff16815260200190815260200160002060008282546200044b919062000763565b925050819055508173ffffffffffffffffffffffffffffffffffffffff16600073ffffffffffffffffffffffffffffffffffffffff167fddf252ad1be2c89b69c2b068fc378daa952ba7f163c4a11628f55a4df523b3ef83604051620004b2919062000735565b60405180910390a3620004ce600083836200054260201b60201c565b5050565b620004e26200054760201b60201c565b1562000525576040517f08c379a00000000000000000000000000000000000000000000000000000000081526004016200051c90620006f1565b60405180910390fd5b6200053d8383836200055e60201b62000ea61760201c565b505050565b505050565b6000600560009054906101000a900460ff16905090565b505050565b828054620005719062000a0e565b90600052602060002090601f016020900481019282620005955760008555620005e1565b82601f10620005b057805160ff1916838001178555620005e1565b82800160010185558215620005e1579182015b82811115620005e0578251825591602001919060010190620005c3565b5b509050620005f09190620005f4565b5090565b5b808211156200060f576000816000905550600101620005f5565b5090565b6200061e81620009b9565b82525050565b6200062f81620009cd565b82525050565b60006200064460108362000752565b9150620006518262000aaf565b602082019050919050565b60006200066b601f8362000752565b9150620006788262000ad8565b602082019050919050565b6200068e81620009f7565b82525050565b600060a082019050620006ab600083018862000624565b620006ba602083018762000624565b620006c9604083018662000624565b620006d8606083018562000683565b620006e7608083018462000613565b9695505050505050565b600060208201905081810360008301526200070c8162000635565b9050919050565b600060208201905081810360008301526200072e816200065c565b9050919050565b60006020820190506200074c600083018462000683565b92915050565b600082825260208201905092915050565b60006200077082620009f7565b91506200077d83620009f7565b9250827fffffffffffffffffffffffffffffffffffffffffffffffffffffffffffffffff03821115620007b557620007b462000a44565b5b828201905092915050565b6000808291508390505b60018511156200081257808604811115620007ea57620007e962000a44565b5b6001851615620007fa5780820291505b80810290506200080a8562000aa2565b9450620007ca565b94509492505050565b60006200082882620009f7565b9150620008358362000a01565b9250620008647fffffffffffffffffffffffffffffffffffffffffffffffffffffffffffffffff84846200086c565b905092915050565b6000826200087e576001905062000951565b816200088e576000905062000951565b8160018114620008a75760028114620008b257620008e8565b600191505062000951565b60ff841115620008c757620008c662000a44565b5b8360020a915084821115620008e157620008e062000a44565b5b5062000951565b5060208310610133831016604e8410600b8410161715620009225782820a9050838111156200091c576200091b62000a44565b5b62000951565b620009318484846001620007c0565b925090508184048111156200094b576200094a62000a44565b5b81810290505b9392505050565b60006200096582620009f7565b91506200097283620009f7565b9250817fffffffffffffffffffffffffffffffffffffffffffffffffffffffffffffffff0483118215151615620009ae57620009ad62000a44565b5b828202905092915050565b6000620009c682620009d7565b9050919050565b6000819050919050565b600073ffffffffffffffffffffffffffffffffffffffff82169050919050565b6000819050919050565b600060ff82169050919050565b6000600282049050600182168062000a2757607f821691505b6020821081141562000a3e5762000a3d62000a73565b5b50919050565b7f4e487b7100000000000000000000000000000000000000000000000000000000600052601160045260246000fd5b7f4e487b7100000000000000000000000000000000000000000000000000000000600052602260045260246000fd5b60008160011c9050919050565b7f5061757361626c653a2070617573656400000000000000000000000000000000600082015250565b7f45524332303a206d696e7420746f20746865207a65726f206164647265737300600082015250565b60805160a05160c05160e0516101005161012051612d9e62000b516000396000610c2c015260006113560152600061139801526000611377015260006113030152600061132b0152612d9e6000f3fe608060405234801561001057600080fd5b506004361061014d5760003560e01c806370a08231116100c357806395d89b411161007c57806395d89b4114610368578063a457c2d714610386578063a9059cbb146103b6578063d505accf146103e6578063dd62ed3e14610402578063f2fde38b146104325761014d565b806370a08231146102ba578063715018a6146102ea57806379cc6790146102f45780637ecebe00146103105780638456cb59146103405780638da5cb5b1461034a5761014d565b80633644e515116101155780633644e5151461020c578063395093511461022a5780633f4ba83a1461025a57806340c10f191461026457806342966c68146102805780635c975abb1461029c5761014d565b806306fdde0314610152578063095ea7b31461017057806318160ddd146101a057806323b872dd146101be578063313ce567146101ee575b600080fd5b61015a61044e565b60405161016791906122fb565b60405180910390f35b61018a60048036038101906101859190611d9b565b6104e0565b60405161019791906121cc565b60405180910390f35b6101a86104fe565b6040516101b5919061259d565b60405180910390f35b6101d860048036038101906101d39190611cae565b610508565b6040516101e591906121cc565b60405180910390f35b6101f6610600565b60405161020391906125b8565b60405180910390f35b610214610609565b60405161022191906121e7565b60405180910390f35b610244600480360381019061023f9190611d9b565b610618565b60405161025191906121cc565b60405180910390f35b6102626106c4565b005b61027e60048036038101906102799190611d9b565b61074a565b005b61029a60048036038101906102959190611dd7565b6107d4565b005b6102a46107e8565b6040516102b191906121cc565b60405180910390f35b6102d460048036038101906102cf9190611c49565b6107ff565b6040516102e1919061259d565b60405180910390f35b6102f2610847565b005b61030e60048036038101906103099190611d9b565b6108cf565b005b61032a60048036038101906103259190611c49565b61094a565b604051610337919061259d565b60405180910390f35b61034861099a565b005b610352610a20565b60405161035f91906121b1565b60405180910390f35b610370610a4a565b60405161037d91906122fb565b60405180910390f35b6103a0600480360381019061039b9190611d9b565b610adc565b6040516103ad91906121cc565b60405180910390f35b6103d060048036038101906103cb9190611d9b565b610bc7565b6040516103dd91906121cc565b60405180910390f35b61040060048036038101906103fb9190611cfd565b610be5565b005b61041c60048036038101906104179190611c72565b610d27565b604051610429919061259d565b60405180910390f35b61044c60048036038101906104479190611c49565b610dae565b005b60606003805461045d90612716565b80601f016020809104026020016040519081016040528092919081815260200182805461048990612716565b80156104d65780601f106104ab576101008083540402835291602001916104d6565b820191906000526020600020905b8154815290600101906020018083116104b957829003601f168201915b5050505050905090565b60006104f46104ed610eab565b8484610eb3565b6001905092915050565b6000600254905090565b600061051584848461107e565b6000600160008673ffffffffffffffffffffffffffffffffffffffff1673ffffffffffffffffffffffffffffffffffffffff1681526020019081526020016000206000610560610eab565b73ffffffffffffffffffffffffffffffffffffffff1673ffffffffffffffffffffffffffffffffffffffff168152602001908152602001600020549050828110156105e0576040517f08c379a00000000000000000000000000000000000000000000000000000000081526004016105d79061249d565b60405180910390fd5b6105f4856105ec610eab565b858403610eb3565b60019150509392505050565b60006012905090565b60006106136112ff565b905090565b60006106ba610625610eab565b848460016000610633610eab565b73ffffffffffffffffffffffffffffffffffffffff1673ffffffffffffffffffffffffffffffffffffffff16815260200190815260200160002060008873ffffffffffffffffffffffffffffffffffffffff1673ffffffffffffffffffffffffffffffffffffffff168152602001908152602001600020546106b591906125fa565b610eb3565b6001905092915050565b6106cc610eab565b73ffffffffffffffffffffffffffffffffffffffff166106ea610a20565b73ffffffffffffffffffffffffffffffffffffffff1614610740576040517f08c379a0000000000000000000000000000000000000000000000000000000008152600401610737906124bd565b60405180910390fd5b6107486113c2565b565b610752610eab565b73ffffffffffffffffffffffffffffffffffffffff16610770610a20565b73ffffffffffffffffffffffffffffffffffffffff16146107c6576040517f08c379a00000000000000000000000000000000000000000000000000000000081526004016107bd906124bd565b60405180910390fd5b6107d08282611464565b5050565b6107e56107df610eab565b826115c4565b50565b6000600560009054906101000a900460ff16905090565b60008060008373ffffffffffffffffffffffffffffffffffffffff1673ffffffffffffffffffffffffffffffffffffffff168152602001908152602001600020549050919050565b61084f610eab565b73ffffffffffffffffffffffffffffffffffffffff1661086d610a20565b73ffffffffffffffffffffffffffffffffffffffff16146108c3576040517f08c379a00000000000000000000000000000000000000000000000000000000081526004016108ba906124bd565b60405180910390fd5b6108cd600061179b565b565b60006108e2836108dd610eab565b610d27565b905081811015610927576040517f08c379a000000000000000000000000000000000000000000000000000000000815260040161091e906124dd565b60405180910390fd5b61093b83610933610eab565b848403610eb3565b61094583836115c4565b505050565b6000610993600660008473ffffffffffffffffffffffffffffffffffffffff1673ffffffffffffffffffffffffffffffffffffffff168152602001908152602001600020611861565b9050919050565b6109a2610eab565b73ffffffffffffffffffffffffffffffffffffffff166109c0610a20565b73ffffffffffffffffffffffffffffffffffffffff1614610a16576040517f08c379a0000000000000000000000000000000000000000000000000000000008152600401610a0d906124bd565b60405180910390fd5b610a1e61186f565b565b6000600560019054906101000a900473ffffffffffffffffffffffffffffffffffffffff16905090565b606060048054610a5990612716565b80601f0160208091040260200160405190810160405280929190818152602001828054610a8590612716565b8015610ad25780601f10610aa757610100808354040283529160200191610ad2565b820191906000526020600020905b815481529060010190602001808311610ab557829003601f168201915b5050505050905090565b60008060016000610aeb610eab565b73ffffffffffffffffffffffffffffffffffffffff1673ffffffffffffffffffffffffffffffffffffffff16815260200190815260200160002060008573ffffffffffffffffffffffffffffffffffffffff1673ffffffffffffffffffffffffffffffffffffffff16815260200190815260200160002054905082811015610ba8576040517f08c379a0000000000000000000000000000000000000000000000000000000008152600401610b9f9061255d565b60405180910390fd5b610bbc610bb3610eab565b85858403610eb3565b600191505092915050565b6000610bdb610bd4610eab565b848461107e565b6001905092915050565b83421115610c28576040517f08c379a0000000000000000000000000000000000000000000000000000000008152600401610c1f906123dd565b60405180910390fd5b60007f0000000000000000000000000000000000000000000000000000000000000000888888610c578c611912565b89604051602001610c6d96959493929190612202565b6040516020818303038152906040528051906020012090506000610c9082611970565b90506000610ca08287878761198a565b90508973ffffffffffffffffffffffffffffffffffffffff168173ffffffffffffffffffffffffffffffffffffffff1614610d10576040517f08c379a0000000000000000000000000000000000000000000000000000000008152600401610d079061247d565b60405180910390fd5b610d1b8a8a8a610eb3565b50505050505050505050565b6000600160008473ffffffffffffffffffffffffffffffffffffffff1673ffffffffffffffffffffffffffffffffffffffff16815260200190815260200160002060008373ffffffffffffffffffffffffffffffffffffffff1673ffffffffffffffffffffffffffffffffffffffff16815260200190815260200160002054905092915050565b610db6610eab565b73ffffffffffffffffffffffffffffffffffffffff16610dd4610a20565b73ffffffffffffffffffffffffffffffffffffffff1614610e2a576040517f08c379a0000000000000000000000000000000000000000000000000000000008152600401610e21906124bd565b60405180910390fd5b600073ffffffffffffffffffffffffffffffffffffffff168173ffffffffffffffffffffffffffffffffffffffff161415610e9a576040517f08c379a0000000000000000000000000000000000000000000000000000000008152600401610e919061239d565b60405180910390fd5b610ea38161179b565b50565b505050565b600033905090565b600073ffffffffffffffffffffffffffffffffffffffff168373ffffffffffffffffffffffffffffffffffffffff161415610f23576040517f08c379a0000000000000000000000000000000000000000000000000000000008152600401610f1a9061253d565b60405180910390fd5b600073ffffffffffffffffffffffffffffffffffffffff168273ffffffffffffffffffffffffffffffffffffffff161415610f93576040517f08c379a0000000000000000000000000000000000000000000000000000000008152600401610f8a906123bd565b60405180910390fd5b80600160008573ffffffffffffffffffffffffffffffffffffffff1673ffffffffffffffffffffffffffffffffffffffff16815260200190815260200160002060008473ffffffffffffffffffffffffffffffffffffffff1673ffffffffffffffffffffffffffffffffffffffff168152602001908152602001600020819055508173ffffffffffffffffffffffffffffffffffffffff168373ffffffffffffffffffffffffffffffffffffffff167f8c5be1e5ebec7d5bd14f71427d1e84f3dd0314c0f7b2291e5b200ac8c7c3b92583604051611071919061259d565b60405180910390a3505050565b600073ffffffffffffffffffffffffffffffffffffffff168373ffffffffffffffffffffffffffffffffffffffff1614156110ee576040517f08c379a00000000000000000000000000000000000000000000000000000000081526004016110e59061251d565b60405180910390fd5b600073ffffffffffffffffffffffffffffffffffffffff168273ffffffffffffffffffffffffffffffffffffffff16141561115e576040517f08c379a00000000000000000000000000000000000000000000000000000000081526004016111559061233d565b60405180910390fd5b611169838383611b15565b60008060008573ffffffffffffffffffffffffffffffffffffffff1673ffffffffffffffffffffffffffffffffffffffff168152602001908152602001600020549050818110156111ef576040517f08c379a00000000000000000000000000000000000000000000000000000000081526004016111e6906123fd565b60405180910390fd5b8181036000808673ffffffffffffffffffffffffffffffffffffffff1673ffffffffffffffffffffffffffffffffffffffff16815260200190815260200160002081905550816000808573ffffffffffffffffffffffffffffffffffffffff1673ffffffffffffffffffffffffffffffffffffffff168152602001908152602001600020600082825461128291906125fa565b925050819055508273ffffffffffffffffffffffffffffffffffffffff168473ffffffffffffffffffffffffffffffffffffffff167fddf252ad1be2c89b69c2b068fc378daa952ba7f163c4a11628f55a4df523b3ef846040516112e6919061259d565b60405180910390a36112f9848484611b6d565b50505050565b60007f0000000000000000000000000000000000000000000000000000000000000000461415611351577f000000000000000000000000000000000000000000000000000000000000000090506113bf565b6113bc7f00000000000000000000000000000000000000000000000000000000000000007f00000000000000000000000000000000000000000000000000000000000000007f0000000000000000000000000000000000000000000000000000000000000000611b72565b90505b90565b6113ca6107e8565b611409576040517f08c379a00000000000000000000000000000000000000000000000000000000081526004016114009061235d565b60405180910390fd5b6000600560006101000a81548160ff0219169083151502179055507f5db9ee0a495bf2e6ff9c91a7834c1ba4fdd244a5e8aa4e537bd38aeae4b073aa61144d610eab565b60405161145a91906121b1565b60405180910390a1565b600073ffffffffffffffffffffffffffffffffffffffff168273ffffffffffffffffffffffffffffffffffffffff1614156114d4576040517f08c379a00000000000000000000000000000000000000000000000000000000081526004016114cb9061257d565b60405180910390fd5b6114e060008383611b15565b80600260008282546114f291906125fa565b92505081905550806000808473ffffffffffffffffffffffffffffffffffffffff1673ffffffffffffffffffffffffffffffffffffffff168152602001908152602001600020600082825461154791906125fa565b925050819055508173ffffffffffffffffffffffffffffffffffffffff16600073ffffffffffffffffffffffffffffffffffffffff167fddf252ad1be2c89b69c2b068fc378daa952ba7f163c4a11628f55a4df523b3ef836040516115ac919061259d565b60405180910390a36115c060008383611b6d565b5050565b600073ffffffffffffffffffffffffffffffffffffffff168273ffffffffffffffffffffffffffffffffffffffff161415611634576040517f08c379a000000000000000000000000000000000000000000000000000000000815260040161162b906124fd565b60405180910390fd5b61164082600083611b15565b60008060008473ffffffffffffffffffffffffffffffffffffffff1673ffffffffffffffffffffffffffffffffffffffff168152602001908152602001600020549050818110156116c6576040517f08c379a00000000000000000000000000000000000000000000000000000000081526004016116bd9061237d565b60405180910390fd5b8181036000808573ffffffffffffffffffffffffffffffffffffffff1673ffffffffffffffffffffffffffffffffffffffff16815260200190815260200160002081905550816002600082825461171d9190612650565b92505081905550600073ffffffffffffffffffffffffffffffffffffffff168373ffffffffffffffffffffffffffffffffffffffff167fddf252ad1be2c89b69c2b068fc378daa952ba7f163c4a11628f55a4df523b3ef84604051611782919061259d565b60405180910390a361179683600084611b6d565b505050565b6000600560019054906101000a900473ffffffffffffffffffffffffffffffffffffffff16905081600560016101000a81548173ffffffffffffffffffffffffffffffffffffffff021916908373ffffffffffffffffffffffffffffffffffffffff1602179055508173ffffffffffffffffffffffffffffffffffffffff168173ffffffffffffffffffffffffffffffffffffffff167f8be0079c531659141344cd1fd0a4f28419497f9722a3daafe3b4186f6b6457e060405160405180910390a35050565b600081600001549050919050565b6118776107e8565b156118b7576040517f08c379a00000000000000000000000000000000000000000000000000000000081526004016118ae9061243d565b60405180910390fd5b6001600560006101000a81548160ff0219169083151502179055507f62e78cea01bee320cd4e420270b5ea74000d11b0c9f74754ebdbfc544b05a2586118fb610eab565b60405161190891906121b1565b60405180910390a1565b600080600660008473ffffffffffffffffffffffffffffffffffffffff1673ffffffffffffffffffffffffffffffffffffffff168152602001908152602001600020905061195f81611861565b915061196a81611bac565b50919050565b600061198361197d6112ff565b83611bc2565b9050919050565b60007f7fffffffffffffffffffffffffffffff5d576e7357a4501ddfe92f46681b20a08260001c11156119f2576040517f08c379a00000000000000000000000000000000000000000000000000000000081526004016119e99061241d565b60405180910390fd5b601b8460ff161480611a075750601c8460ff16145b611a46576040517f08c379a0000000000000000000000000000000000000000000000000000000008152600401611a3d9061245d565b60405180910390fd5b600060018686868660405160008152602001604052604051611a6b94939291906122b6565b6020604051602081039080840390855afa158015611a8d573d6000803e3d6000fd5b505050602060405103519050600073ffffffffffffffffffffffffffffffffffffffff168173ffffffffffffffffffffffffffffffffffffffff161415611b09576040517f08c379a0000000000000000000000000000000000000000000000000000000008152600401611b009061231d565b60405180910390fd5b80915050949350505050565b611b1d6107e8565b15611b5d576040517f08c379a0000000000000000000000000000000000000000000000000000000008152600401611b549061243d565b60405180910390fd5b611b68838383610ea6565b505050565b505050565b60008383834630604051602001611b8d959493929190612263565b6040516020818303038152906040528051906020012090509392505050565b6001816000016000828254019250508190555050565b60008282604051602001611bd792919061217a565b60405160208183030381529060405280519060200120905092915050565b600081359050611c0481612d0c565b92915050565b600081359050611c1981612d23565b92915050565b600081359050611c2e81612d3a565b92915050565b600081359050611c4381612d51565b92915050565b600060208284031215611c5b57600080fd5b6000611c6984828501611bf5565b91505092915050565b60008060408385031215611c8557600080fd5b6000611c9385828601611bf5565b9250506020611ca485828601611bf5565b9150509250929050565b600080600060608486031215611cc357600080fd5b6000611cd186828701611bf5565b9350506020611ce286828701611bf5565b9250506040611cf386828701611c1f565b9150509250925092565b600080600080600080600060e0888a031215611d1857600080fd5b6000611d268a828b01611bf5565b9750506020611d378a828b01611bf5565b9650506040611d488a828b01611c1f565b9550506060611d598a828b01611c1f565b9450506080611d6a8a828b01611c34565b93505060a0611d7b8a828b01611c0a565b92505060c0611d8c8a828b01611c0a565b91505092959891949750929550565b60008060408385031215611dae57600080fd5b6000611dbc85828601611bf5565b9250506020611dcd85828601611c1f565b9150509250929050565b600060208284031215611de957600080fd5b6000611df784828501611c1f565b91505092915050565b611e0981612684565b82525050565b611e1881612696565b82525050565b611e27816126a2565b82525050565b611e3e611e39826126a2565b612748565b82525050565b6000611e4f826125d3565b611e5981856125de565b9350611e698185602086016126e3565b611e72816127b0565b840191505092915050565b6000611e8a6018836125de565b9150611e95826127c1565b602082019050919050565b6000611ead6023836125de565b9150611eb8826127ea565b604082019050919050565b6000611ed06014836125de565b9150611edb82612839565b602082019050919050565b6000611ef36022836125de565b9150611efe82612862565b604082019050919050565b6000611f166026836125de565b9150611f21826128b1565b604082019050919050565b6000611f396022836125de565b9150611f4482612900565b604082019050919050565b6000611f5c6002836125ef565b9150611f678261294f565b600282019050919050565b6000611f7f601d836125de565b9150611f8a82612978565b602082019050919050565b6000611fa26026836125de565b9150611fad826129a1565b604082019050919050565b6000611fc56022836125de565b9150611fd0826129f0565b604082019050919050565b6000611fe86010836125de565b9150611ff382612a3f565b602082019050919050565b600061200b6022836125de565b915061201682612a68565b604082019050919050565b600061202e601e836125de565b915061203982612ab7565b602082019050919050565b60006120516028836125de565b915061205c82612ae0565b604082019050919050565b60006120746020836125de565b915061207f82612b2f565b602082019050919050565b60006120976024836125de565b91506120a282612b58565b604082019050919050565b60006120ba6021836125de565b91506120c582612ba7565b604082019050919050565b60006120dd6025836125de565b91506120e882612bf6565b604082019050919050565b60006121006024836125de565b915061210b82612c45565b604082019050919050565b60006121236025836125de565b915061212e82612c94565b604082019050919050565b6000612146601f836125de565b915061215182612ce3565b602082019050919050565b612165816126cc565b82525050565b612174816126d6565b82525050565b600061218582611f4f565b91506121918285611e2d565b6020820191506121a18284611e2d565b6020820191508190509392505050565b60006020820190506121c66000830184611e00565b92915050565b60006020820190506121e16000830184611e0f565b92915050565b60006020820190506121fc6000830184611e1e565b92915050565b600060c0820190506122176000830189611e1e565b6122246020830188611e00565b6122316040830187611e00565b61223e606083018661215c565b61224b608083018561215c565b61225860a083018461215c565b979650505050505050565b600060a0820190506122786000830188611e1e565b6122856020830187611e1e565b6122926040830186611e1e565b61229f606083018561215c565b6122ac6080830184611e00565b9695505050505050565b60006080820190506122cb6000830187611e1e565b6122d8602083018661216b565b6122e56040830185611e1e565b6122f26060830184611e1e565b95945050505050565b600060208201905081810360008301526123158184611e44565b905092915050565b6000602082019050818103600083015261233681611e7d565b9050919050565b6000602082019050818103600083015261235681611ea0565b9050919050565b6000602082019050818103600083015261237681611ec3565b9050919050565b6000602082019050818103600083015261239681611ee6565b9050919050565b600060208201905081810360008301526123b681611f09565b9050919050565b600060208201905081810360008301526123d681611f2c565b9050919050565b600060208201905081810360008301526123f681611f72565b9050919050565b6000602082019050818103600083015261241681611f95565b9050919050565b6000602082019050818103600083015261243681611fb8565b9050919050565b6000602082019050818103600083015261245681611fdb565b9050919050565b6000602082019050818103600083015261247681611ffe565b9050919050565b6000602082019050818103600083015261249681612021565b9050919050565b600060208201905081810360008301526124b681612044565b9050919050565b600060208201905081810360008301526124d681612067565b9050919050565b600060208201905081810360008301526124f68161208a565b9050919050565b60006020820190508181036000830152612516816120ad565b9050919050565b60006020820190508181036000830152612536816120d0565b9050919050565b60006020820190508181036000830152612556816120f3565b9050919050565b6000602082019050818103600083015261257681612116565b9050919050565b6000602082019050818103600083015261259681612139565b9050919050565b60006020820190506125b2600083018461215c565b92915050565b60006020820190506125cd600083018461216b565b92915050565b600081519050919050565b600082825260208201905092915050565b600081905092915050565b6000612605826126cc565b9150612610836126cc565b9250827fffffffffffffffffffffffffffffffffffffffffffffffffffffffffffffffff0382111561264557612644612752565b5b828201905092915050565b600061265b826126cc565b9150612666836126cc565b92508282101561267957612678612752565b5b828203905092915050565b600061268f826126ac565b9050919050565b60008115159050919050565b6000819050919050565b600073ffffffffffffffffffffffffffffffffffffffff82169050919050565b6000819050919050565b600060ff82169050919050565b60005b838110156127015780820151818401526020810190506126e6565b83811115612710576000848401525b50505050565b6000600282049050600182168061272e57607f821691505b6020821081141561274257612741612781565b5b50919050565b6000819050919050565b7f4e487b7100000000000000000000000000000000000000000000000000000000600052601160045260246000fd5b7f4e487b7100000000000000000000000000000000000000000000000000000000600052602260045260246000fd5b6000601f19601f8301169050919050565b7f45434453413a20696e76616c6964207369676e61747572650000000000000000600082015250565b7f45524332303a207472616e7366657220746f20746865207a65726f206164647260008201527f6573730000000000000000000000000000000000000000000000000000000000602082015250565b7f5061757361626c653a206e6f7420706175736564000000000000000000000000600082015250565b7f45524332303a206275726e20616d6f756e7420657863656564732062616c616e60008201527f6365000000000000000000000000000000000000000000000000000000000000602082015250565b7f4f776e61626c653a206e6577206f776e657220697320746865207a65726f206160008201527f6464726573730000000000000000000000000000000000000000000000000000602082015250565b7f45524332303a20617070726f766520746f20746865207a65726f20616464726560008201527f7373000000000000000000000000000000000000000000000000000000000000602082015250565b7f1901000000000000000000000000000000000000000000000000000000000000600082015250565b7f45524332305065726d69743a206578706972656420646561646c696e65000000600082015250565b7f45524332303a207472616e7366657220616d6f756e742065786365656473206260008201527f616c616e63650000000000000000000000000000000000000000000000000000602082015250565b7f45434453413a20696e76616c6964207369676e6174757265202773272076616c60008201527f7565000000000000000000000000000000000000000000000000000000000000602082015250565b7f5061757361626c653a2070617573656400000000000000000000000000000000600082015250565b7f45434453413a20696e76616c6964207369676e6174757265202776272076616c60008201527f7565000000000000000000000000000000000000000000000000000000000000602082015250565b7f45524332305065726d69743a20696e76616c6964207369676e61747572650000600082015250565b7f45524332303a207472616e7366657220616d6f756e742065786365656473206160008201527f6c6c6f77616e6365000000000000000000000000000000000000000000000000602082015250565b7f4f776e61626c653a2063616c6c6572206973206e6f7420746865206f776e6572600082015250565b7f45524332303a206275726e20616d6f756e74206578636565647320616c6c6f7760008201527f616e636500000000000000000000000000000000000000000000000000000000602082015250565b7f45524332303a206275726e2066726f6d20746865207a65726f2061646472657360008201527f7300000000000000000000000000000000000000000000000000000000000000602082015250565b7f45524332303a207472616e736665722066726f6d20746865207a65726f20616460008201527f6472657373000000000000000000000000000000000000000000000000000000602082015250565b7f45524332303a20617070726f76652066726f6d20746865207a65726f2061646460008201527f7265737300000000000000000000000000000000000000000000000000000000602082015250565b7f45524332303a2064656372656173656420616c6c6f77616e63652062656c6f7760008201527f207a65726f000000000000000000000000000000000000000000000000000000602082015250565b7f45524332303a206d696e7420746f20746865207a65726f206164647265737300600082015250565b612d1581612684565b8114612d2057600080fd5b50565b612d2c816126a2565b8114612d3757600080fd5b50565b612d43816126cc565b8114612d4e57600080fd5b50565b612d5a816126d6565b8114612d6557600080fd5b5056fea2646970667358221220141e84e506f4eaa5020864d5ceeab2ef8b153c8212d705df55d671ab86e9969064736f6c63430008040033",
  "immutableReferences": {
    "934": [
      {
        "length": 32,
        "start": 3116
      }
    ],
    "2903": [
      {
        "length": 32,
        "start": 4907
      }
    ],
    "2905": [
      {
        "length": 32,
        "start": 4867
      }
    ],
    "2907": [
      {
        "length": 32,
        "start": 4983
      }
    ],
    "2909": [
      {
        "length": 32,
        "start": 5016
      }
    ],
    "2911": [
      {
        "length": 32,
        "start": 4950
      }
    ]
  },
  "source": "// SPDX-License-Identifier: MIT\n// monmo_2021_solidity_tests\npragma solidity ^0.8.2;\n\nimport \"@openzeppelin/contracts/token/ERC721/ERC721.sol\";\nimport \"@openzeppelin/contracts/token/ERC721/IERC721.sol\";\nimport \"@openzeppelin/contracts/token/ERC20/ERC20.sol\";\nimport \"@openzeppelin/contracts/token/ERC20/extensions/ERC20Burnable.sol\";\nimport \"@openzeppelin/contracts/token/ERC20/extensions/draft-ERC20Permit.sol\";\nimport \"@openzeppelin/contracts/security/Pausable.sol\";\nimport \"@openzeppelin/contracts/access/Ownable.sol\";\nimport \"@openzeppelin/contracts/token/ERC721/extensions/ERC721Burnable.sol\";\nimport \"@openzeppelin/contracts/utils/Counters.sol\";\n\n\n/**\n * @title CalvaToken\n * @notice Implementa el token ERC20 como moneda de cambio.\n */\ncontract CalvaToken is ERC20, ERC20Burnable, Pausable, Ownable, ERC20Permit {\n    constructor() ERC20(\"CalvaToken\", \"CLV\") ERC20Permit(\"CalvaToken\") {\n        //se enva 1m de token iniciales a la cuenta del creador del contrato.\n        _mint(msg.sender, 1000000 * 10 ** decimals());\n    }\n\n    function pause() public onlyOwner {\n        _pause();\n    }\n\n    function unpause() public onlyOwner {\n        _unpause();\n    }\n\n    function mint(address to, uint256 amount) public onlyOwner {\n        _mint(to, amount);\n    }\n\n    function _beforeTokenTransfer(address from, address to, uint256 amount)\n        internal\n        whenNotPaused\n        override\n    {\n        super._beforeTokenTransfer(from, to, amount);\n    }\n}\n\n/**\n * @title CalvaToken\n * @notice Implementa el token ERC20 como moneda de cambio.\n */\ncontract Pakos is ERC721, Pausable, Ownable, ERC721Burnable {\n    using Counters for Counters.Counter;\n\n    Counters.Counter private _tokenIdCounter;\n\n    constructor() ERC721(\"Pakos\", \"PAKO\") {}\n    \n    event NewPakos(uint pakoId, string name, uint dna);\n    \n    uint dnaDigits = 16;\n    uint dnaModulus = 10 ** dnaDigits;\n    uint cooldownTime = 1 days;\n    \n    struct Pako {\n        string name;\n        uint dna;\n        uint32 readyTime;\n        uint16 winCount;\n        uint16 lossCount;\n    }\n    \n    Pako[] public pakos;\n    \n    mapping (uint => address) public pakoToOwner;\n    mapping ( address => uint) ownerPakoCount;\n    \n    function _createPako(string memory _name, uint _dna) private {\n        pakos.push(Pako(_name, _dna, 1, uint16(block.timestamp + cooldownTime), 0));\n        uint id = pakos.length -1;\n        pakoToOwner[id] = msg.sender;\n        ownerPakoCount[msg.sender] = ownerPakoCount[msg.sender]++;\n        emit NewPakos(id, _name, _dna);\n    }\n    \n    \n  function _generateRandomDna(string memory _str) private view returns (uint) {\n    uint rand = uint(keccak256(abi.encodePacked(_str)));\n    return rand % dnaModulus;\n  }\n\n  function createRandomPako(string memory _name) public {\n    require(ownerPakoCount[msg.sender] == 0);\n    uint randDna = _generateRandomDna(_name);\n    randDna = randDna - randDna % 100;\n    _createPako(_name, randDna);\n  }\n\n    function safeMint(address to) public onlyOwner {\n        _safeMint(to, _tokenIdCounter.current());\n        _tokenIdCounter.increment();\n    }\n\n    function pause() public onlyOwner {\n        _pause();\n    }\n\n    function unpause() public onlyOwner {\n        _unpause();\n    }\n\n    function _beforeTokenTransfer(address from, address to, uint256 tokenId)\n        internal\n        whenNotPaused\n        override\n    {\n        super._beforeTokenTransfer(from, to, tokenId);\n    }\n}\n\n/**\n * @title Classifieds\n * @notice Implementa los anuncios. El mercado se regir por los CalvaToken generados\n * como moneda de cambio y un token ERC721 (Pakos) que representa la propiedad\n * de los artculos que se comercializan.\n * \n * Solo los anuncios para vender artculos son implementados. La tokenizacin\n * del artculo es responsabilidad del token ERC721 que debe codificar los \n * detalles del artculo.\n */\ncontract Classifieds {\n    event TradeStatusChange(uint256 ad, bytes32 status);\n\n    IERC20 currencyToken;\n    IERC721 itemToken;\n\n    struct Trade {\n        address poster;\n        uint256 item;\n        uint256 price;\n        bytes32 status; // Open, Executed, Cancelled\n    }\n\n    mapping(uint256 => Trade) public trades;\n\n    uint256 tradeCounter;\n\n   constructor (address _currencyTokenAddress, address _itemTokenAddress)\n        public payable\n    {\n        currencyToken = IERC20(_currencyTokenAddress);\n        itemToken = IERC721(_itemTokenAddress);\n        tradeCounter = 0;\n    }\n\n    /**\n     * @dev Returns the details for a trade.\n     * @param _trade The id for the trade.\n     */\n    function getTrade(uint256 _trade)\n        public\n        virtual\n        view\n        returns(address, uint256, uint256, bytes32)\n    {\n        Trade memory trade = trades[_trade];\n        return (trade.poster, trade.item, trade.price, trade.status);\n    }\n\n    /**\n     * @dev Opens a new trade. Puts _item in escrow.\n     * @param _item The id for the item to trade.\n     * @param _price The amount of currency for which to trade the item.\n     */\n    function openTrade(uint256 _item, uint256 _price)\n        public\n        virtual\n    {\n        itemToken.transferFrom(msg.sender, address(this), _item);\n        trades[tradeCounter] = Trade({\n            poster: msg.sender,\n            item: _item,\n            price: _price,\n            status: \"Open\"\n        });\n        tradeCounter += 1;\n        emit TradeStatusChange(tradeCounter - 1, \"Open\");\n    }\n\n    /**\n     * @dev Executes a trade. Must have approved this contract to transfer the\n     * amount of currency specified to the poster. Transfers ownership of the\n     * item to the filler.\n     * @param _trade The id of an existing trade\n     */\n    function executeTrade(uint256 _trade)\n        public\n        virtual\n    {\n        Trade memory trade = trades[_trade];\n        require(trade.status == \"Open\", \"Trade is not Open.\");\n        currencyToken.transferFrom(msg.sender, trade.poster, trade.price);\n        itemToken.transferFrom(address(this), msg.sender, trade.item);\n        trades[_trade].status = \"Executed\";\n        emit TradeStatusChange(_trade, \"Executed\");\n    }\n\n    /**\n     * @dev Cancels a trade by the poster.\n     * @param _trade The trade to be cancelled.\n     */\n    function cancelTrade(uint256 _trade)\n        public\n        virtual\n    {\n        Trade memory trade = trades[_trade];\n        require(\n            msg.sender == trade.poster,\n            \"Trade can be cancelled only by poster.\"\n        );\n        require(trade.status == \"Open\", \"Trade is not Open.\");\n        itemToken.transferFrom(address(this), trade.poster, trade.item);\n        trades[_trade].status = \"Cancelled\";\n        emit TradeStatusChange(_trade, \"Cancelled\");\n    }\n}",
  "sourcePath": "/Users/Jonsui/Documents/GitHub/Pakos-Eth-Token/contracts/PakosERC721Ful.sol",
  "compiler": {
    "name": "solc",
    "version": "0.8.4+commit.c7e474f2.Emscripten.clang"
  },
  "schemaVersion": "3.4.2",
  "updatedAt": "2021-07-24T13:45:20.969Z",
  "devdoc": {
    "kind": "dev",
    "methods": {
      "DOMAIN_SEPARATOR()": {
        "details": "See {IERC20Permit-DOMAIN_SEPARATOR}."
      },
      "allowance(address,address)": {
        "details": "See {IERC20-allowance}."
      },
      "approve(address,uint256)": {
        "details": "See {IERC20-approve}. Requirements: - `spender` cannot be the zero address."
      },
      "balanceOf(address)": {
        "details": "See {IERC20-balanceOf}."
      },
      "burn(uint256)": {
        "details": "Destroys `amount` tokens from the caller. See {ERC20-_burn}."
      },
      "burnFrom(address,uint256)": {
        "details": "Destroys `amount` tokens from `account`, deducting from the caller's allowance. See {ERC20-_burn} and {ERC20-allowance}. Requirements: - the caller must have allowance for ``accounts``'s tokens of at least `amount`."
      },
      "decimals()": {
        "details": "Returns the number of decimals used to get its user representation. For example, if `decimals` equals `2`, a balance of `505` tokens should be displayed to a user as `5,05` (`505 / 10 ** 2`). Tokens usually opt for a value of 18, imitating the relationship between Ether and Wei. This is the value {ERC20} uses, unless this function is overridden; NOTE: This information is only used for _display_ purposes: it in no way affects any of the arithmetic of the contract, including {IERC20-balanceOf} and {IERC20-transfer}."
      },
      "decreaseAllowance(address,uint256)": {
        "details": "Atomically decreases the allowance granted to `spender` by the caller. This is an alternative to {approve} that can be used as a mitigation for problems described in {IERC20-approve}. Emits an {Approval} event indicating the updated allowance. Requirements: - `spender` cannot be the zero address. - `spender` must have allowance for the caller of at least `subtractedValue`."
      },
      "increaseAllowance(address,uint256)": {
        "details": "Atomically increases the allowance granted to `spender` by the caller. This is an alternative to {approve} that can be used as a mitigation for problems described in {IERC20-approve}. Emits an {Approval} event indicating the updated allowance. Requirements: - `spender` cannot be the zero address."
      },
      "name()": {
        "details": "Returns the name of the token."
      },
      "nonces(address)": {
        "details": "See {IERC20Permit-nonces}."
      },
      "owner()": {
        "details": "Returns the address of the current owner."
      },
      "paused()": {
        "details": "Returns true if the contract is paused, and false otherwise."
      },
      "permit(address,address,uint256,uint256,uint8,bytes32,bytes32)": {
        "details": "See {IERC20Permit-permit}."
      },
      "renounceOwnership()": {
        "details": "Leaves the contract without owner. It will not be possible to call `onlyOwner` functions anymore. Can only be called by the current owner. NOTE: Renouncing ownership will leave the contract without an owner, thereby removing any functionality that is only available to the owner."
      },
      "symbol()": {
        "details": "Returns the symbol of the token, usually a shorter version of the name."
      },
      "totalSupply()": {
        "details": "See {IERC20-totalSupply}."
      },
      "transfer(address,uint256)": {
        "details": "See {IERC20-transfer}. Requirements: - `recipient` cannot be the zero address. - the caller must have a balance of at least `amount`."
      },
      "transferFrom(address,address,uint256)": {
        "details": "See {IERC20-transferFrom}. Emits an {Approval} event indicating the updated allowance. This is not required by the EIP. See the note at the beginning of {ERC20}. Requirements: - `sender` and `recipient` cannot be the zero address. - `sender` must have a balance of at least `amount`. - the caller must have allowance for ``sender``'s tokens of at least `amount`."
      },
      "transferOwnership(address)": {
        "details": "Transfers ownership of the contract to a new account (`newOwner`). Can only be called by the current owner."
      }
    },
    "title": "CalvaToken",
    "version": 1
  },
  "userdoc": {
    "kind": "user",
    "methods": {},
    "notice": "Implementa el token ERC20 como moneda de cambio.",
    "version": 1
  }
}