{
  "contractName": "Classifieds",
  "abi": [
    {
      "inputs": [
        {
          "internalType": "address",
          "name": "_currencyTokenAddress",
          "type": "address"
        },
        {
          "internalType": "address",
          "name": "_itemTokenAddress",
          "type": "address"
        }
      ],
      "stateMutability": "payable",
      "type": "constructor"
    },
    {
      "anonymous": false,
      "inputs": [
        {
          "indexed": false,
          "internalType": "uint256",
          "name": "ad",
          "type": "uint256"
        },
        {
          "indexed": false,
          "internalType": "bytes32",
          "name": "status",
          "type": "bytes32"
        }
      ],
      "name": "TradeStatusChange",
      "type": "event"
    },
    {
      "inputs": [
        {
          "internalType": "uint256",
          "name": "",
          "type": "uint256"
        }
      ],
      "name": "trades",
      "outputs": [
        {
          "internalType": "address",
          "name": "poster",
          "type": "address"
        },
        {
          "internalType": "uint256",
          "name": "item",
          "type": "uint256"
        },
        {
          "internalType": "uint256",
          "name": "price",
          "type": "uint256"
        },
        {
          "internalType": "bytes32",
          "name": "status",
          "type": "bytes32"
        }
      ],
      "stateMutability": "view",
      "type": "function"
    },
    {
      "inputs": [
        {
          "internalType": "uint256",
          "name": "_trade",
          "type": "uint256"
        }
      ],
      "name": "getTrade",
      "outputs": [
        {
          "internalType": "address",
          "name": "",
          "type": "address"
        },
        {
          "internalType": "uint256",
          "name": "",
          "type": "uint256"
        },
        {
          "internalType": "uint256",
          "name": "",
          "type": "uint256"
        },
        {
          "internalType": "bytes32",
          "name": "",
          "type": "bytes32"
        }
      ],
      "stateMutability": "view",
      "type": "function"
    },
    {
      "inputs": [
        {
          "internalType": "uint256",
          "name": "_item",
          "type": "uint256"
        },
        {
          "internalType": "uint256",
          "name": "_price",
          "type": "uint256"
        }
      ],
      "name": "openTrade",
      "outputs": [],
      "stateMutability": "nonpayable",
      "type": "function"
    },
    {
      "inputs": [
        {
          "internalType": "uint256",
          "name": "_trade",
          "type": "uint256"
        }
      ],
      "name": "executeTrade",
      "outputs": [],
      "stateMutability": "nonpayable",
      "type": "function"
    },
    {
      "inputs": [
        {
          "internalType": "uint256",
          "name": "_trade",
          "type": "uint256"
        }
      ],
      "name": "cancelTrade",
      "outputs": [],
      "stateMutability": "nonpayable",
      "type": "function"
    }
  ],
  "bytecode": "0x6080604052604051610f4e380380610f4e833981810160405281019061002591906100ca565b816000806101000a81548173ffffffffffffffffffffffffffffffffffffffff021916908373ffffffffffffffffffffffffffffffffffffffff16021790555080600160006101000a81548173ffffffffffffffffffffffffffffffffffffffff021916908373ffffffffffffffffffffffffffffffffffffffff1602179055506000600381905550505061014f565b6000815190506100c481610138565b92915050565b600080604083850312156100dd57600080fd5b60006100eb858286016100b5565b92505060206100fc858286016100b5565b9150509250929050565b600061011182610118565b9050919050565b600073ffffffffffffffffffffffffffffffffffffffff82169050919050565b61014181610106565b811461014c57600080fd5b50565b610df08061015e6000396000f3fe608060405234801561001057600080fd5b50600436106100575760003560e01c806302d2838b1461005c57806309ec6cc7146100785780630c493fba146100945780631e6c598e146100b05780632db25e05146100e3575b600080fd5b6100766004803603810190610071919061097d565b610116565b005b610092600480360381019061008d919061097d565b6103d5565b005b6100ae60048036038101906100a991906109a6565b610652565b005b6100ca60048036038101906100c5919061097d565b61081a565b6040516100da9493929190610afe565b60405180910390f35b6100fd60048036038101906100f8919061097d565b61086a565b60405161010d9493929190610afe565b60405180910390f35b6000600260008381526020019081526020016000206040518060800160405290816000820160009054906101000a900473ffffffffffffffffffffffffffffffffffffffff1673ffffffffffffffffffffffffffffffffffffffff1673ffffffffffffffffffffffffffffffffffffffff168152602001600182015481526020016002820154815260200160038201548152505090507f4f70656e00000000000000000000000000000000000000000000000000000000816060015114610212576040517f08c379a000000000000000000000000000000000000000000000000000000000815260040161020990610b43565b60405180910390fd5b60008054906101000a900473ffffffffffffffffffffffffffffffffffffffff1673ffffffffffffffffffffffffffffffffffffffff166323b872dd33836000015184604001516040518463ffffffff1660e01b815260040161027793929190610ac7565b602060405180830381600087803b15801561029157600080fd5b505af11580156102a5573d6000803e3d6000fd5b505050506040513d601f19601f820116820180604052508101906102c99190610954565b50600160009054906101000a900473ffffffffffffffffffffffffffffffffffffffff1673ffffffffffffffffffffffffffffffffffffffff166323b872dd303384602001516040518463ffffffff1660e01b815260040161032d93929190610ac7565b600060405180830381600087803b15801561034757600080fd5b505af115801561035b573d6000803e3d6000fd5b505050507f457865637574656400000000000000000000000000000000000000000000000060026000848152602001908152602001600020600301819055507f4d38ed2c5ea671a5ccddc331f0ebebd94a60aaf6e572543497485d4d148f9edf826040516103c99190610b83565b60405180910390a15050565b6000600260008381526020019081526020016000206040518060800160405290816000820160009054906101000a900473ffffffffffffffffffffffffffffffffffffffff1673ffffffffffffffffffffffffffffffffffffffff1673ffffffffffffffffffffffffffffffffffffffff16815260200160018201548152602001600282015481526020016003820154815250509050806000015173ffffffffffffffffffffffffffffffffffffffff163373ffffffffffffffffffffffffffffffffffffffff16146104dd576040517f08c379a00000000000000000000000000000000000000000000000000000000081526004016104d490610b63565b60405180910390fd5b7f4f70656e00000000000000000000000000000000000000000000000000000000816060015114610543576040517f08c379a000000000000000000000000000000000000000000000000000000000815260040161053a90610b43565b60405180910390fd5b600160009054906101000a900473ffffffffffffffffffffffffffffffffffffffff1673ffffffffffffffffffffffffffffffffffffffff166323b872dd30836000015184602001516040518463ffffffff1660e01b81526004016105aa93929190610ac7565b600060405180830381600087803b1580156105c457600080fd5b505af11580156105d8573d6000803e3d6000fd5b505050507f43616e63656c6c6564000000000000000000000000000000000000000000000060026000848152602001908152602001600020600301819055507f4d38ed2c5ea671a5ccddc331f0ebebd94a60aaf6e572543497485d4d148f9edf826040516106469190610baa565b60405180910390a15050565b600160009054906101000a900473ffffffffffffffffffffffffffffffffffffffff1673ffffffffffffffffffffffffffffffffffffffff166323b872dd3330856040518463ffffffff1660e01b81526004016106b193929190610ac7565b600060405180830381600087803b1580156106cb57600080fd5b505af11580156106df573d6000803e3d6000fd5b5050505060405180608001604052803373ffffffffffffffffffffffffffffffffffffffff1681526020018381526020018281526020017f4f70656e0000000000000000000000000000000000000000000000000000000081525060026000600354815260200190815260200160002060008201518160000160006101000a81548173ffffffffffffffffffffffffffffffffffffffff021916908373ffffffffffffffffffffffffffffffffffffffff1602179055506020820151816001015560408201518160020155606082015181600301559050506001600360008282546107ca9190610c09565b925050819055507f4d38ed2c5ea671a5ccddc331f0ebebd94a60aaf6e572543497485d4d148f9edf60016003546108019190610c5f565b60405161080e9190610bd1565b60405180910390a15050565b60026020528060005260406000206000915090508060000160009054906101000a900473ffffffffffffffffffffffffffffffffffffffff16908060010154908060020154908060030154905084565b6000806000806000600260008781526020019081526020016000206040518060800160405290816000820160009054906101000a900473ffffffffffffffffffffffffffffffffffffffff1673ffffffffffffffffffffffffffffffffffffffff1673ffffffffffffffffffffffffffffffffffffffff1681526020016001820154815260200160028201548152602001600382015481525050905080600001518160200151826040015183606001519450945094509450509193509193565b60008151905061093981610d8c565b92915050565b60008135905061094e81610da3565b92915050565b60006020828403121561096657600080fd5b60006109748482850161092a565b91505092915050565b60006020828403121561098f57600080fd5b600061099d8482850161093f565b91505092915050565b600080604083850312156109b957600080fd5b60006109c78582860161093f565b92505060206109d88582860161093f565b9150509250929050565b6109eb81610c93565b82525050565b6109fa81610cb1565b82525050565b7f4578656375746564000000000000000000000000000000000000000000000000815250565b6000610a33601283610bf8565b9150610a3e82610d14565b602082019050919050565b6000610a56602683610bf8565b9150610a6182610d3d565b604082019050919050565b7f43616e63656c6c65640000000000000000000000000000000000000000000000815250565b7f4f70656e00000000000000000000000000000000000000000000000000000000815250565b610ac181610cdb565b82525050565b6000606082019050610adc60008301866109e2565b610ae960208301856109e2565b610af66040830184610ab8565b949350505050565b6000608082019050610b1360008301876109e2565b610b206020830186610ab8565b610b2d6040830185610ab8565b610b3a60608301846109f1565b95945050505050565b60006020820190508181036000830152610b5c81610a26565b9050919050565b60006020820190508181036000830152610b7c81610a49565b9050919050565b6000604082019050610b986000830184610ab8565b610ba460208301610a00565b92915050565b6000604082019050610bbf6000830184610ab8565b610bcb60208301610a6c565b92915050565b6000604082019050610be66000830184610ab8565b610bf260208301610a92565b92915050565b600082825260208201905092915050565b6000610c1482610cdb565b9150610c1f83610cdb565b9250827fffffffffffffffffffffffffffffffffffffffffffffffffffffffffffffffff03821115610c5457610c53610ce5565b5b828201905092915050565b6000610c6a82610cdb565b9150610c7583610cdb565b925082821015610c8857610c87610ce5565b5b828203905092915050565b6000610c9e82610cbb565b9050919050565b60008115159050919050565b6000819050919050565b600073ffffffffffffffffffffffffffffffffffffffff82169050919050565b6000819050919050565b7f4e487b7100000000000000000000000000000000000000000000000000000000600052601160045260246000fd5b7f5472616465206973206e6f74204f70656e2e0000000000000000000000000000600082015250565b7f54726164652063616e2062652063616e63656c6c6564206f6e6c79206279207060008201527f6f737465722e0000000000000000000000000000000000000000000000000000602082015250565b610d9581610ca5565b8114610da057600080fd5b50565b610dac81610cdb565b8114610db757600080fd5b5056fea26469706673582212204318263209b8639d6e3897e56b0b1d5f3a78de5adf7f88225de97893bcb48b1564736f6c63430008040033",
  "immutableReferences": {},
  "source": "// SPDX-License-Identifier: MIT\n// monmo_2021_solidity_tests\npragma solidity ^0.8.2;\n\nimport \"@openzeppelin/contracts/token/ERC721/ERC721.sol\";\nimport \"@openzeppelin/contracts/token/ERC721/IERC721.sol\";\nimport \"@openzeppelin/contracts/token/ERC20/ERC20.sol\";\nimport \"@openzeppelin/contracts/token/ERC20/extensions/ERC20Burnable.sol\";\nimport \"@openzeppelin/contracts/token/ERC20/extensions/draft-ERC20Permit.sol\";\nimport \"@openzeppelin/contracts/security/Pausable.sol\";\nimport \"@openzeppelin/contracts/access/Ownable.sol\";\nimport \"@openzeppelin/contracts/token/ERC721/extensions/ERC721Burnable.sol\";\nimport \"@openzeppelin/contracts/utils/Counters.sol\";\n\n\n/**\n * @title CalvaToken\n * @notice Implementa el token ERC20 como moneda de cambio.\n */\ncontract CalvaToken is ERC20, ERC20Burnable, Pausable, Ownable, ERC20Permit {\n    constructor() ERC20(\"CalvaToken\", \"CLV\") ERC20Permit(\"CalvaToken\") {\n        //se enva 1m de token iniciales a la cuenta del creador del contrato.\n        _mint(msg.sender, 1000000 * 10 ** decimals());\n    }\n\n    function pause() public onlyOwner {\n        _pause();\n    }\n\n    function unpause() public onlyOwner {\n        _unpause();\n    }\n\n    function mint(address to, uint256 amount) public onlyOwner {\n        _mint(to, amount);\n    }\n\n    function _beforeTokenTransfer(address from, address to, uint256 amount)\n        internal\n        whenNotPaused\n        override\n    {\n        super._beforeTokenTransfer(from, to, amount);\n    }\n}\n\n/**\n * @title CalvaToken\n * @notice Implementa el token ERC20 como moneda de cambio.\n */\ncontract Pakos is ERC721, Pausable, Ownable, ERC721Burnable {\n    using Counters for Counters.Counter;\n\n    Counters.Counter private _tokenIdCounter;\n\n    constructor() ERC721(\"Pakos\", \"PAKO\") {}\n    \n    event NewPakos(uint pakoId, string name, uint dna);\n    \n    uint dnaDigits = 16;\n    uint dnaModulus = 10 ** dnaDigits;\n    uint cooldownTime = 1 days;\n    \n    struct Pako {\n        string name;\n        uint dna;\n        uint32 readyTime;\n        uint16 winCount;\n        uint16 lossCount;\n    }\n    \n    Pako[] public pakos;\n    \n    mapping (uint => address) public pakoToOwner;\n    mapping ( address => uint) ownerPakoCount;\n    \n    function _createPako(string memory _name, uint _dna) private {\n        pakos.push(Pako(_name, _dna, 1, uint16(block.timestamp + cooldownTime), 0));\n        uint id = pakos.length -1;\n        pakoToOwner[id] = msg.sender;\n        ownerPakoCount[msg.sender] = ownerPakoCount[msg.sender]++;\n        emit NewPakos(id, _name, _dna);\n    }\n    \n    \n  function _generateRandomDna(string memory _str) private view returns (uint) {\n    uint rand = uint(keccak256(abi.encodePacked(_str)));\n    return rand % dnaModulus;\n  }\n\n  function createRandomPako(string memory _name) public {\n    require(ownerPakoCount[msg.sender] == 0);\n    uint randDna = _generateRandomDna(_name);\n    randDna = randDna - randDna % 100;\n    _createPako(_name, randDna);\n  }\n\n    function safeMint(address to) public onlyOwner {\n        _safeMint(to, _tokenIdCounter.current());\n        _tokenIdCounter.increment();\n    }\n\n    function pause() public onlyOwner {\n        _pause();\n    }\n\n    function unpause() public onlyOwner {\n        _unpause();\n    }\n\n    function _beforeTokenTransfer(address from, address to, uint256 tokenId)\n        internal\n        whenNotPaused\n        override\n    {\n        super._beforeTokenTransfer(from, to, tokenId);\n    }\n}\n\n/**\n * @title Classifieds\n * @notice Implementa los anuncios. El mercado se regir por los CalvaToken generados\n * como moneda de cambio y un token ERC721 (Pakos) que representa la propiedad\n * de los artculos que se comercializan.\n * \n * Solo los anuncios para vender artculos son implementados. La tokenizacin\n * del artculo es responsabilidad del token ERC721 que debe codificar los \n * detalles del artculo.\n */\ncontract Classifieds {\n    event TradeStatusChange(uint256 ad, bytes32 status);\n\n    IERC20 currencyToken;\n    IERC721 itemToken;\n\n    struct Trade {\n        address poster;\n        uint256 item;\n        uint256 price;\n        bytes32 status; // Open, Executed, Cancelled\n    }\n\n    mapping(uint256 => Trade) public trades;\n\n    uint256 tradeCounter;\n\n   constructor (address _currencyTokenAddress, address _itemTokenAddress)\n        public payable\n    {\n        currencyToken = IERC20(_currencyTokenAddress);\n        itemToken = IERC721(_itemTokenAddress);\n        tradeCounter = 0;\n    }\n\n    /**\n     * @dev Returns the details for a trade.\n     * @param _trade The id for the trade.\n     */\n    function getTrade(uint256 _trade)\n        public\n        virtual\n        view\n        returns(address, uint256, uint256, bytes32)\n    {\n        Trade memory trade = trades[_trade];\n        return (trade.poster, trade.item, trade.price, trade.status);\n    }\n\n    /**\n     * @dev Opens a new trade. Puts _item in escrow.\n     * @param _item The id for the item to trade.\n     * @param _price The amount of currency for which to trade the item.\n     */\n    function openTrade(uint256 _item, uint256 _price)\n        public\n        virtual\n    {\n        itemToken.transferFrom(msg.sender, address(this), _item);\n        trades[tradeCounter] = Trade({\n            poster: msg.sender,\n            item: _item,\n            price: _price,\n            status: \"Open\"\n        });\n        tradeCounter += 1;\n        emit TradeStatusChange(tradeCounter - 1, \"Open\");\n    }\n\n    /**\n     * @dev Executes a trade. Must have approved this contract to transfer the\n     * amount of currency specified to the poster. Transfers ownership of the\n     * item to the filler.\n     * @param _trade The id of an existing trade\n     */\n    function executeTrade(uint256 _trade)\n        public\n        virtual\n    {\n        Trade memory trade = trades[_trade];\n        require(trade.status == \"Open\", \"Trade is not Open.\");\n        currencyToken.transferFrom(msg.sender, trade.poster, trade.price);\n        itemToken.transferFrom(address(this), msg.sender, trade.item);\n        trades[_trade].status = \"Executed\";\n        emit TradeStatusChange(_trade, \"Executed\");\n    }\n\n    /**\n     * @dev Cancels a trade by the poster.\n     * @param _trade The trade to be cancelled.\n     */\n    function cancelTrade(uint256 _trade)\n        public\n        virtual\n    {\n        Trade memory trade = trades[_trade];\n        require(\n            msg.sender == trade.poster,\n            \"Trade can be cancelled only by poster.\"\n        );\n        require(trade.status == \"Open\", \"Trade is not Open.\");\n        itemToken.transferFrom(address(this), trade.poster, trade.item);\n        trades[_trade].status = \"Cancelled\";\n        emit TradeStatusChange(_trade, \"Cancelled\");\n    }\n}",
  "sourcePath": "/Users/Jonsui/Documents/GitHub/Pakos-Eth-Token/contracts/PakosERC721Ful.sol",
  "compiler": {
    "name": "solc",
    "version": "0.8.4+commit.c7e474f2.Emscripten.clang"
  },
  "schemaVersion": "3.4.2",
  "updatedAt": "2021-07-24T13:45:21.068Z",
  "devdoc": {
    "kind": "dev",
    "methods": {
      "cancelTrade(uint256)": {
        "details": "Cancels a trade by the poster.",
        "params": {
          "_trade": "The trade to be cancelled."
        }
      },
      "executeTrade(uint256)": {
        "details": "Executes a trade. Must have approved this contract to transfer the amount of currency specified to the poster. Transfers ownership of the item to the filler.",
        "params": {
          "_trade": "The id of an existing trade"
        }
      },
      "getTrade(uint256)": {
        "details": "Returns the details for a trade.",
        "params": {
          "_trade": "The id for the trade."
        }
      },
      "openTrade(uint256,uint256)": {
        "details": "Opens a new trade. Puts _item in escrow.",
        "params": {
          "_item": "The id for the item to trade.",
          "_price": "The amount of currency for which to trade the item."
        }
      }
    },
    "title": "Classifieds",
    "version": 1
  },
  "userdoc": {
    "kind": "user",
    "methods": {},
    "notice": "Implementa los anuncios. El mercado se regir por los CalvaToken generados como moneda de cambio y un token ERC721 (Pakos) que representa la propiedad de los artculos que se comercializan.  Solo los anuncios para vender artculos son implementados. La tokenizacin del artculo es responsabilidad del token ERC721 que debe codificar los  detalles del artculo.",
    "version": 1
  }
}