{
  "contractName": "Pakos",
  "abi": [
    {
      "inputs": [],
      "stateMutability": "nonpayable",
      "type": "constructor"
    },
    {
      "anonymous": false,
      "inputs": [
        {
          "indexed": true,
          "internalType": "address",
          "name": "owner",
          "type": "address"
        },
        {
          "indexed": true,
          "internalType": "address",
          "name": "approved",
          "type": "address"
        },
        {
          "indexed": true,
          "internalType": "uint256",
          "name": "tokenId",
          "type": "uint256"
        }
      ],
      "name": "Approval",
      "type": "event"
    },
    {
      "anonymous": false,
      "inputs": [
        {
          "indexed": true,
          "internalType": "address",
          "name": "owner",
          "type": "address"
        },
        {
          "indexed": true,
          "internalType": "address",
          "name": "operator",
          "type": "address"
        },
        {
          "indexed": false,
          "internalType": "bool",
          "name": "approved",
          "type": "bool"
        }
      ],
      "name": "ApprovalForAll",
      "type": "event"
    },
    {
      "anonymous": false,
      "inputs": [
        {
          "indexed": false,
          "internalType": "uint256",
          "name": "pakoId",
          "type": "uint256"
        },
        {
          "indexed": false,
          "internalType": "string",
          "name": "name",
          "type": "string"
        },
        {
          "indexed": false,
          "internalType": "uint256",
          "name": "dna",
          "type": "uint256"
        }
      ],
      "name": "NewPakos",
      "type": "event"
    },
    {
      "anonymous": false,
      "inputs": [
        {
          "indexed": true,
          "internalType": "address",
          "name": "previousOwner",
          "type": "address"
        },
        {
          "indexed": true,
          "internalType": "address",
          "name": "newOwner",
          "type": "address"
        }
      ],
      "name": "OwnershipTransferred",
      "type": "event"
    },
    {
      "anonymous": false,
      "inputs": [
        {
          "indexed": false,
          "internalType": "address",
          "name": "account",
          "type": "address"
        }
      ],
      "name": "Paused",
      "type": "event"
    },
    {
      "anonymous": false,
      "inputs": [
        {
          "indexed": true,
          "internalType": "address",
          "name": "from",
          "type": "address"
        },
        {
          "indexed": true,
          "internalType": "address",
          "name": "to",
          "type": "address"
        },
        {
          "indexed": true,
          "internalType": "uint256",
          "name": "tokenId",
          "type": "uint256"
        }
      ],
      "name": "Transfer",
      "type": "event"
    },
    {
      "anonymous": false,
      "inputs": [
        {
          "indexed": false,
          "internalType": "address",
          "name": "account",
          "type": "address"
        }
      ],
      "name": "Unpaused",
      "type": "event"
    },
    {
      "inputs": [
        {
          "internalType": "address",
          "name": "to",
          "type": "address"
        },
        {
          "internalType": "uint256",
          "name": "tokenId",
          "type": "uint256"
        }
      ],
      "name": "approve",
      "outputs": [],
      "stateMutability": "nonpayable",
      "type": "function"
    },
    {
      "inputs": [
        {
          "internalType": "address",
          "name": "owner",
          "type": "address"
        }
      ],
      "name": "balanceOf",
      "outputs": [
        {
          "internalType": "uint256",
          "name": "",
          "type": "uint256"
        }
      ],
      "stateMutability": "view",
      "type": "function"
    },
    {
      "inputs": [
        {
          "internalType": "uint256",
          "name": "tokenId",
          "type": "uint256"
        }
      ],
      "name": "burn",
      "outputs": [],
      "stateMutability": "nonpayable",
      "type": "function"
    },
    {
      "inputs": [
        {
          "internalType": "uint256",
          "name": "tokenId",
          "type": "uint256"
        }
      ],
      "name": "getApproved",
      "outputs": [
        {
          "internalType": "address",
          "name": "",
          "type": "address"
        }
      ],
      "stateMutability": "view",
      "type": "function"
    },
    {
      "inputs": [
        {
          "internalType": "address",
          "name": "owner",
          "type": "address"
        },
        {
          "internalType": "address",
          "name": "operator",
          "type": "address"
        }
      ],
      "name": "isApprovedForAll",
      "outputs": [
        {
          "internalType": "bool",
          "name": "",
          "type": "bool"
        }
      ],
      "stateMutability": "view",
      "type": "function"
    },
    {
      "inputs": [],
      "name": "name",
      "outputs": [
        {
          "internalType": "string",
          "name": "",
          "type": "string"
        }
      ],
      "stateMutability": "view",
      "type": "function"
    },
    {
      "inputs": [],
      "name": "owner",
      "outputs": [
        {
          "internalType": "address",
          "name": "",
          "type": "address"
        }
      ],
      "stateMutability": "view",
      "type": "function"
    },
    {
      "inputs": [
        {
          "internalType": "uint256",
          "name": "tokenId",
          "type": "uint256"
        }
      ],
      "name": "ownerOf",
      "outputs": [
        {
          "internalType": "address",
          "name": "",
          "type": "address"
        }
      ],
      "stateMutability": "view",
      "type": "function"
    },
    {
      "inputs": [
        {
          "internalType": "uint256",
          "name": "",
          "type": "uint256"
        }
      ],
      "name": "pakoToOwner",
      "outputs": [
        {
          "internalType": "address",
          "name": "",
          "type": "address"
        }
      ],
      "stateMutability": "view",
      "type": "function"
    },
    {
      "inputs": [
        {
          "internalType": "uint256",
          "name": "",
          "type": "uint256"
        }
      ],
      "name": "pakos",
      "outputs": [
        {
          "internalType": "string",
          "name": "name",
          "type": "string"
        },
        {
          "internalType": "uint256",
          "name": "dna",
          "type": "uint256"
        },
        {
          "internalType": "uint32",
          "name": "readyTime",
          "type": "uint32"
        },
        {
          "internalType": "uint16",
          "name": "winCount",
          "type": "uint16"
        },
        {
          "internalType": "uint16",
          "name": "lossCount",
          "type": "uint16"
        }
      ],
      "stateMutability": "view",
      "type": "function"
    },
    {
      "inputs": [],
      "name": "paused",
      "outputs": [
        {
          "internalType": "bool",
          "name": "",
          "type": "bool"
        }
      ],
      "stateMutability": "view",
      "type": "function"
    },
    {
      "inputs": [],
      "name": "renounceOwnership",
      "outputs": [],
      "stateMutability": "nonpayable",
      "type": "function"
    },
    {
      "inputs": [
        {
          "internalType": "address",
          "name": "from",
          "type": "address"
        },
        {
          "internalType": "address",
          "name": "to",
          "type": "address"
        },
        {
          "internalType": "uint256",
          "name": "tokenId",
          "type": "uint256"
        }
      ],
      "name": "safeTransferFrom",
      "outputs": [],
      "stateMutability": "nonpayable",
      "type": "function"
    },
    {
      "inputs": [
        {
          "internalType": "address",
          "name": "from",
          "type": "address"
        },
        {
          "internalType": "address",
          "name": "to",
          "type": "address"
        },
        {
          "internalType": "uint256",
          "name": "tokenId",
          "type": "uint256"
        },
        {
          "internalType": "bytes",
          "name": "_data",
          "type": "bytes"
        }
      ],
      "name": "safeTransferFrom",
      "outputs": [],
      "stateMutability": "nonpayable",
      "type": "function"
    },
    {
      "inputs": [
        {
          "internalType": "address",
          "name": "operator",
          "type": "address"
        },
        {
          "internalType": "bool",
          "name": "approved",
          "type": "bool"
        }
      ],
      "name": "setApprovalForAll",
      "outputs": [],
      "stateMutability": "nonpayable",
      "type": "function"
    },
    {
      "inputs": [
        {
          "internalType": "bytes4",
          "name": "interfaceId",
          "type": "bytes4"
        }
      ],
      "name": "supportsInterface",
      "outputs": [
        {
          "internalType": "bool",
          "name": "",
          "type": "bool"
        }
      ],
      "stateMutability": "view",
      "type": "function"
    },
    {
      "inputs": [],
      "name": "symbol",
      "outputs": [
        {
          "internalType": "string",
          "name": "",
          "type": "string"
        }
      ],
      "stateMutability": "view",
      "type": "function"
    },
    {
      "inputs": [
        {
          "internalType": "uint256",
          "name": "tokenId",
          "type": "uint256"
        }
      ],
      "name": "tokenURI",
      "outputs": [
        {
          "internalType": "string",
          "name": "",
          "type": "string"
        }
      ],
      "stateMutability": "view",
      "type": "function"
    },
    {
      "inputs": [
        {
          "internalType": "address",
          "name": "from",
          "type": "address"
        },
        {
          "internalType": "address",
          "name": "to",
          "type": "address"
        },
        {
          "internalType": "uint256",
          "name": "tokenId",
          "type": "uint256"
        }
      ],
      "name": "transferFrom",
      "outputs": [],
      "stateMutability": "nonpayable",
      "type": "function"
    },
    {
      "inputs": [
        {
          "internalType": "address",
          "name": "newOwner",
          "type": "address"
        }
      ],
      "name": "transferOwnership",
      "outputs": [],
      "stateMutability": "nonpayable",
      "type": "function"
    },
    {
      "inputs": [
        {
          "internalType": "string",
          "name": "_name",
          "type": "string"
        }
      ],
      "name": "createRandomPako",
      "outputs": [],
      "stateMutability": "nonpayable",
      "type": "function"
    },
    {
      "inputs": [
        {
          "internalType": "address",
          "name": "to",
          "type": "address"
        }
      ],
      "name": "safeMint",
      "outputs": [],
      "stateMutability": "nonpayable",
      "type": "function"
    },
    {
      "inputs": [],
      "name": "pause",
      "outputs": [],
      "stateMutability": "nonpayable",
      "type": "function"
    },
    {
      "inputs": [],
      "name": "unpause",
      "outputs": [],
      "stateMutability": "nonpayable",
      "type": "function"
    }
  ],
  "bytecode": "0x60806040526010600855600854600a6200001a9190620002ec565b60095562015180600a553480156200003157600080fd5b506040518060400160405280600581526020017f50616b6f730000000000000000000000000000000000000000000000000000008152506040518060400160405280600481526020017f50414b4f000000000000000000000000000000000000000000000000000000008152508160009080519060200190620000b6929190620001e1565b508060019080519060200190620000cf929190620001e1565b5050506000600660006101000a81548160ff0219169083151502179055506200010d620001016200011360201b60201c565b6200011b60201b60201c565b620004d4565b600033905090565b6000600660019054906101000a900473ffffffffffffffffffffffffffffffffffffffff16905081600660016101000a81548173ffffffffffffffffffffffffffffffffffffffff021916908373ffffffffffffffffffffffffffffffffffffffff1602179055508173ffffffffffffffffffffffffffffffffffffffff168173ffffffffffffffffffffffffffffffffffffffff167f8be0079c531659141344cd1fd0a4f28419497f9722a3daafe3b4186f6b6457e060405160405180910390a35050565b828054620001ef9062000433565b90600052602060002090601f0160209004810192826200021357600085556200025f565b82601f106200022e57805160ff19168380011785556200025f565b828001600101855582156200025f579182015b828111156200025e57825182559160200191906001019062000241565b5b5090506200026e919062000272565b5090565b5b808211156200028d57600081600090555060010162000273565b5090565b6000808291508390505b6001851115620002e357808604811115620002bb57620002ba62000469565b5b6001851615620002cb5780820291505b8081029050620002db85620004c7565b94506200029b565b94509492505050565b6000620002f98262000429565b9150620003068362000429565b9250620003357fffffffffffffffffffffffffffffffffffffffffffffffffffffffffffffffff84846200033d565b905092915050565b6000826200034f576001905062000422565b816200035f576000905062000422565b81600181146200037857600281146200038357620003b9565b600191505062000422565b60ff84111562000398576200039762000469565b5b8360020a915084821115620003b257620003b162000469565b5b5062000422565b5060208310610133831016604e8410600b8410161715620003f35782820a905083811115620003ed57620003ec62000469565b5b62000422565b62000402848484600162000291565b925090508184048111156200041c576200041b62000469565b5b81810290505b9392505050565b6000819050919050565b600060028204905060018216806200044c57607f821691505b6020821081141562000463576200046262000498565b5b50919050565b7f4e487b7100000000000000000000000000000000000000000000000000000000600052601160045260246000fd5b7f4e487b7100000000000000000000000000000000000000000000000000000000600052602260045260246000fd5b60008160011c9050919050565b6138df80620004e46000396000f3fe608060405234801561001057600080fd5b50600436106101585760003560e01c806370a08231116100c3578063a29607391161007c578063a29607391461038f578063b88d4fde146103ab578063c87b56dd146103c7578063e985e9c5146103f7578063f2fde38b14610427578063f5b294371461044357610158565b806370a08231146102f3578063715018a6146103235780638456cb591461032d5780638da5cb5b1461033757806395d89b4114610355578063a22cb4651461037357610158565b80633f4ba83a116101155780633f4ba83a1461024757806340d097c31461025157806342842e0e1461026d57806342966c68146102895780635c975abb146102a55780636352211e146102c357610158565b806301ffc9a71461015d57806306fdde031461018d578063081812fc146101ab578063095ea7b3146101db57806323b872dd146101f7578063364c057814610213575b600080fd5b6101776004803603810190610172919061271c565b610473565b6040516101849190612c01565b60405180910390f35b610195610555565b6040516101a29190612c1c565b60405180910390f35b6101c560048036038101906101c091906127af565b6105e7565b6040516101d29190612b9a565b60405180910390f35b6101f560048036038101906101f091906126e0565b61066c565b005b610211600480360381019061020c91906125da565b610784565b005b61022d600480360381019061022891906127af565b6107e4565b60405161023e959493929190612c3e565b60405180910390f35b61024f6108de565b005b61026b60048036038101906102669190612575565b610964565b005b610287600480360381019061028291906125da565b610a00565b005b6102a3600480360381019061029e91906127af565b610a20565b005b6102ad610a7c565b6040516102ba9190612c01565b60405180910390f35b6102dd60048036038101906102d891906127af565b610a93565b6040516102ea9190612b9a565b60405180910390f35b61030d60048036038101906103089190612575565b610b45565b60405161031a9190612ef8565b60405180910390f35b61032b610bfd565b005b610335610c85565b005b61033f610d0b565b60405161034c9190612b9a565b60405180910390f35b61035d610d35565b60405161036a9190612c1c565b60405180910390f35b61038d600480360381019061038891906126a4565b610dc7565b005b6103a960048036038101906103a4919061276e565b610f48565b005b6103c560048036038101906103c09190612629565b610fc9565b005b6103e160048036038101906103dc91906127af565b61102b565b6040516103ee9190612c1c565b60405180910390f35b610411600480360381019061040c919061259e565b6110d2565b60405161041e9190612c01565b60405180910390f35b610441600480360381019061043c9190612575565b611166565b005b61045d600480360381019061045891906127af565b61125e565b60405161046a9190612b9a565b60405180910390f35b60007f80ac58cd000000000000000000000000000000000000000000000000000000007bffffffffffffffffffffffffffffffffffffffffffffffffffffffff1916827bffffffffffffffffffffffffffffffffffffffffffffffffffffffff1916148061053e57507f5b5e139f000000000000000000000000000000000000000000000000000000007bffffffffffffffffffffffffffffffffffffffffffffffffffffffff1916827bffffffffffffffffffffffffffffffffffffffffffffffffffffffff1916145b8061054e575061054d82611291565b5b9050919050565b606060008054610564906131aa565b80601f0160208091040260200160405190810160405280929190818152602001828054610590906131aa565b80156105dd5780601f106105b2576101008083540402835291602001916105dd565b820191906000526020600020905b8154815290600101906020018083116105c057829003601f168201915b5050505050905090565b60006105f2826112fb565b610631576040517f08c379a000000000000000000000000000000000000000000000000000000000815260040161062890612e18565b60405180910390fd5b6004600083815260200190815260200160002060009054906101000a900473ffffffffffffffffffffffffffffffffffffffff169050919050565b600061067782610a93565b90508073ffffffffffffffffffffffffffffffffffffffff168373ffffffffffffffffffffffffffffffffffffffff1614156106e8576040517f08c379a00000000000000000000000000000000000000000000000000000000081526004016106df90612e98565b60405180910390fd5b8073ffffffffffffffffffffffffffffffffffffffff16610707611367565b73ffffffffffffffffffffffffffffffffffffffff161480610736575061073581610730611367565b6110d2565b5b610775576040517f08c379a000000000000000000000000000000000000000000000000000000000815260040161076c90612d98565b60405180910390fd5b61077f838361136f565b505050565b61079561078f611367565b82611428565b6107d4576040517f08c379a00000000000000000000000000000000000000000000000000000000081526004016107cb90612eb8565b60405180910390fd5b6107df838383611506565b505050565b600b81815481106107f457600080fd5b9060005260206000209060030201600091509050806000018054610817906131aa565b80601f0160208091040260200160405190810160405280929190818152602001828054610843906131aa565b80156108905780601f1061086557610100808354040283529160200191610890565b820191906000526020600020905b81548152906001019060200180831161087357829003601f168201915b5050505050908060010154908060020160009054906101000a900463ffffffff16908060020160049054906101000a900461ffff16908060020160069054906101000a900461ffff16905085565b6108e6611367565b73ffffffffffffffffffffffffffffffffffffffff16610904610d0b565b73ffffffffffffffffffffffffffffffffffffffff161461095a576040517f08c379a000000000000000000000000000000000000000000000000000000000815260040161095190612e38565b60405180910390fd5b610962611762565b565b61096c611367565b73ffffffffffffffffffffffffffffffffffffffff1661098a610d0b565b73ffffffffffffffffffffffffffffffffffffffff16146109e0576040517f08c379a00000000000000000000000000000000000000000000000000000000081526004016109d790612e38565b60405180910390fd5b6109f3816109ee6007611804565b611812565b6109fd6007611830565b50565b610a1b83838360405180602001604052806000815250610fc9565b505050565b610a31610a2b611367565b82611428565b610a70576040517f08c379a0000000000000000000000000000000000000000000000000000000008152600401610a6790612ed8565b60405180910390fd5b610a7981611846565b50565b6000600660009054906101000a900460ff16905090565b6000806002600084815260200190815260200160002060009054906101000a900473ffffffffffffffffffffffffffffffffffffffff169050600073ffffffffffffffffffffffffffffffffffffffff168173ffffffffffffffffffffffffffffffffffffffff161415610b3c576040517f08c379a0000000000000000000000000000000000000000000000000000000008152600401610b3390612dd8565b60405180910390fd5b80915050919050565b60008073ffffffffffffffffffffffffffffffffffffffff168273ffffffffffffffffffffffffffffffffffffffff161415610bb6576040517f08c379a0000000000000000000000000000000000000000000000000000000008152600401610bad90612db8565b60405180910390fd5b600360008373ffffffffffffffffffffffffffffffffffffffff1673ffffffffffffffffffffffffffffffffffffffff168152602001908152602001600020549050919050565b610c05611367565b73ffffffffffffffffffffffffffffffffffffffff16610c23610d0b565b73ffffffffffffffffffffffffffffffffffffffff1614610c79576040517f08c379a0000000000000000000000000000000000000000000000000000000008152600401610c7090612e38565b60405180910390fd5b610c836000611957565b565b610c8d611367565b73ffffffffffffffffffffffffffffffffffffffff16610cab610d0b565b73ffffffffffffffffffffffffffffffffffffffff1614610d01576040517f08c379a0000000000000000000000000000000000000000000000000000000008152600401610cf890612e38565b60405180910390fd5b610d09611a1d565b565b6000600660019054906101000a900473ffffffffffffffffffffffffffffffffffffffff16905090565b606060018054610d44906131aa565b80601f0160208091040260200160405190810160405280929190818152602001828054610d70906131aa565b8015610dbd5780601f10610d9257610100808354040283529160200191610dbd565b820191906000526020600020905b815481529060010190602001808311610da057829003601f168201915b5050505050905090565b610dcf611367565b73ffffffffffffffffffffffffffffffffffffffff168273ffffffffffffffffffffffffffffffffffffffff161415610e3d576040517f08c379a0000000000000000000000000000000000000000000000000000000008152600401610e3490612d38565b60405180910390fd5b8060056000610e4a611367565b73ffffffffffffffffffffffffffffffffffffffff1673ffffffffffffffffffffffffffffffffffffffff16815260200190815260200160002060008473ffffffffffffffffffffffffffffffffffffffff1673ffffffffffffffffffffffffffffffffffffffff16815260200190815260200160002060006101000a81548160ff0219169083151502179055508173ffffffffffffffffffffffffffffffffffffffff16610ef7611367565b73ffffffffffffffffffffffffffffffffffffffff167f17307eab39ab6107e8899845ad3d59bd9653f200f220920489ca2b5937696c3183604051610f3c9190612c01565b60405180910390a35050565b6000600d60003373ffffffffffffffffffffffffffffffffffffffff1673ffffffffffffffffffffffffffffffffffffffff1681526020019081526020016000205414610f9457600080fd5b6000610f9f82611ac0565b9050606481610fae9190613256565b81610fb991906130a2565b9050610fc58282611b05565b5050565b610fda610fd4611367565b83611428565b611019576040517f08c379a000000000000000000000000000000000000000000000000000000000815260040161101090612eb8565b60405180910390fd5b61102584848484611d49565b50505050565b6060611036826112fb565b611075576040517f08c379a000000000000000000000000000000000000000000000000000000000815260040161106c90612e78565b60405180910390fd5b600061107f611da5565b9050600081511161109f57604051806020016040528060008152506110ca565b806110a984611dbc565b6040516020016110ba929190612b76565b6040516020818303038152906040525b915050919050565b6000600560008473ffffffffffffffffffffffffffffffffffffffff1673ffffffffffffffffffffffffffffffffffffffff16815260200190815260200160002060008373ffffffffffffffffffffffffffffffffffffffff1673ffffffffffffffffffffffffffffffffffffffff16815260200190815260200160002060009054906101000a900460ff16905092915050565b61116e611367565b73ffffffffffffffffffffffffffffffffffffffff1661118c610d0b565b73ffffffffffffffffffffffffffffffffffffffff16146111e2576040517f08c379a00000000000000000000000000000000000000000000000000000000081526004016111d990612e38565b60405180910390fd5b600073ffffffffffffffffffffffffffffffffffffffff168173ffffffffffffffffffffffffffffffffffffffff161415611252576040517f08c379a000000000000000000000000000000000000000000000000000000000815260040161124990612cd8565b60405180910390fd5b61125b81611957565b50565b600c6020528060005260406000206000915054906101000a900473ffffffffffffffffffffffffffffffffffffffff1681565b60007f01ffc9a7000000000000000000000000000000000000000000000000000000007bffffffffffffffffffffffffffffffffffffffffffffffffffffffff1916827bffffffffffffffffffffffffffffffffffffffffffffffffffffffff1916149050919050565b60008073ffffffffffffffffffffffffffffffffffffffff166002600084815260200190815260200160002060009054906101000a900473ffffffffffffffffffffffffffffffffffffffff1673ffffffffffffffffffffffffffffffffffffffff1614159050919050565b600033905090565b816004600083815260200190815260200160002060006101000a81548173ffffffffffffffffffffffffffffffffffffffff021916908373ffffffffffffffffffffffffffffffffffffffff160217905550808273ffffffffffffffffffffffffffffffffffffffff166113e283610a93565b73ffffffffffffffffffffffffffffffffffffffff167f8c5be1e5ebec7d5bd14f71427d1e84f3dd0314c0f7b2291e5b200ac8c7c3b92560405160405180910390a45050565b6000611433826112fb565b611472576040517f08c379a000000000000000000000000000000000000000000000000000000000815260040161146990612d58565b60405180910390fd5b600061147d83610a93565b90508073ffffffffffffffffffffffffffffffffffffffff168473ffffffffffffffffffffffffffffffffffffffff1614806114ec57508373ffffffffffffffffffffffffffffffffffffffff166114d4846105e7565b73ffffffffffffffffffffffffffffffffffffffff16145b806114fd57506114fc81856110d2565b5b91505092915050565b8273ffffffffffffffffffffffffffffffffffffffff1661152682610a93565b73ffffffffffffffffffffffffffffffffffffffff161461157c576040517f08c379a000000000000000000000000000000000000000000000000000000000815260040161157390612e58565b60405180910390fd5b600073ffffffffffffffffffffffffffffffffffffffff168273ffffffffffffffffffffffffffffffffffffffff1614156115ec576040517f08c379a00000000000000000000000000000000000000000000000000000000081526004016115e390612d18565b60405180910390fd5b6115f7838383611f69565b61160260008261136f565b6001600360008573ffffffffffffffffffffffffffffffffffffffff1673ffffffffffffffffffffffffffffffffffffffff168152602001908152602001600020600082825461165291906130a2565b925050819055506001600360008473ffffffffffffffffffffffffffffffffffffffff1673ffffffffffffffffffffffffffffffffffffffff16815260200190815260200160002060008282546116a9919061301b565b92505081905550816002600083815260200190815260200160002060006101000a81548173ffffffffffffffffffffffffffffffffffffffff021916908373ffffffffffffffffffffffffffffffffffffffff160217905550808273ffffffffffffffffffffffffffffffffffffffff168473ffffffffffffffffffffffffffffffffffffffff167fddf252ad1be2c89b69c2b068fc378daa952ba7f163c4a11628f55a4df523b3ef60405160405180910390a4505050565b61176a610a7c565b6117a9576040517f08c379a00000000000000000000000000000000000000000000000000000000081526004016117a090612c98565b60405180910390fd5b6000600660006101000a81548160ff0219169083151502179055507f5db9ee0a495bf2e6ff9c91a7834c1ba4fdd244a5e8aa4e537bd38aeae4b073aa6117ed611367565b6040516117fa9190612b9a565b60405180910390a1565b600081600001549050919050565b61182c828260405180602001604052806000815250611fc1565b5050565b6001816000016000828254019250508190555050565b600061185182610a93565b905061185f81600084611f69565b61186a60008361136f565b6001600360008373ffffffffffffffffffffffffffffffffffffffff1673ffffffffffffffffffffffffffffffffffffffff16815260200190815260200160002060008282546118ba91906130a2565b925050819055506002600083815260200190815260200160002060006101000a81549073ffffffffffffffffffffffffffffffffffffffff021916905581600073ffffffffffffffffffffffffffffffffffffffff168273ffffffffffffffffffffffffffffffffffffffff167fddf252ad1be2c89b69c2b068fc378daa952ba7f163c4a11628f55a4df523b3ef60405160405180910390a45050565b6000600660019054906101000a900473ffffffffffffffffffffffffffffffffffffffff16905081600660016101000a81548173ffffffffffffffffffffffffffffffffffffffff021916908373ffffffffffffffffffffffffffffffffffffffff1602179055508173ffffffffffffffffffffffffffffffffffffffff168173ffffffffffffffffffffffffffffffffffffffff167f8be0079c531659141344cd1fd0a4f28419497f9722a3daafe3b4186f6b6457e060405160405180910390a35050565b611a25610a7c565b15611a65576040517f08c379a0000000000000000000000000000000000000000000000000000000008152600401611a5c90612d78565b60405180910390fd5b6001600660006101000a81548160ff0219169083151502179055507f62e78cea01bee320cd4e420270b5ea74000d11b0c9f74754ebdbfc544b05a258611aa9611367565b604051611ab69190612b9a565b60405180910390a1565b60008082604051602001611ad49190612b5f565b6040516020818303038152906040528051906020012060001c905060095481611afd9190613256565b915050919050565b600b6040518060a00160405280848152602001838152602001600163ffffffff168152602001600a5442611b39919061301b565b61ffff168152602001600061ffff1681525090806001815401808255809150506001900390600052602060002090600302016000909190919091506000820151816000019080519060200190611b90929190612399565b506020820151816001015560408201518160020160006101000a81548163ffffffff021916908363ffffffff16021790555060608201518160020160046101000a81548161ffff021916908361ffff16021790555060808201518160020160066101000a81548161ffff021916908361ffff160217905550505060006001600b80549050611c1e91906130a2565b905033600c600083815260200190815260200160002060006101000a81548173ffffffffffffffffffffffffffffffffffffffff021916908373ffffffffffffffffffffffffffffffffffffffff160217905550600d60003373ffffffffffffffffffffffffffffffffffffffff1673ffffffffffffffffffffffffffffffffffffffff1681526020019081526020016000206000815480929190611cc29061320d565b91905055600d60003373ffffffffffffffffffffffffffffffffffffffff1673ffffffffffffffffffffffffffffffffffffffff168152602001908152602001600020819055507f16febc7b44069135d81a1deeb2012ee49a33713eea24c9381aaef5279b046a2c818484604051611d3c93929190612f13565b60405180910390a1505050565b611d54848484611506565b611d608484848461201c565b611d9f576040517f08c379a0000000000000000000000000000000000000000000000000000000008152600401611d9690612cb8565b60405180910390fd5b50505050565b606060405180602001604052806000815250905090565b60606000821415611e04576040518060400160405280600181526020017f30000000000000000000000000000000000000000000000000000000000000008152509050611f64565b600082905060005b60008214611e36578080611e1f9061320d565b915050600a82611e2f9190613071565b9150611e0c565b60008167ffffffffffffffff811115611e78577f4e487b7100000000000000000000000000000000000000000000000000000000600052604160045260246000fd5b6040519080825280601f01601f191660200182016040528015611eaa5781602001600182028036833780820191505090505b5090505b60008514611f5d57600182611ec391906130a2565b9150600a85611ed29190613256565b6030611ede919061301b565b60f81b818381518110611f1a577f4e487b7100000000000000000000000000000000000000000000000000000000600052603260045260246000fd5b60200101907effffffffffffffffffffffffffffffffffffffffffffffffffffffffffffff1916908160001a905350600a85611f569190613071565b9450611eae565b8093505050505b919050565b611f71610a7c565b15611fb1576040517f08c379a0000000000000000000000000000000000000000000000000000000008152600401611fa890612d78565b60405180910390fd5b611fbc8383836121b3565b505050565b611fcb83836121b8565b611fd8600084848461201c565b612017576040517f08c379a000000000000000000000000000000000000000000000000000000000815260040161200e90612cb8565b60405180910390fd5b505050565b600061203d8473ffffffffffffffffffffffffffffffffffffffff16612386565b156121a6578373ffffffffffffffffffffffffffffffffffffffff1663150b7a02612066611367565b8786866040518563ffffffff1660e01b81526004016120889493929190612bb5565b602060405180830381600087803b1580156120a257600080fd5b505af19250505080156120d357506040513d601f19601f820116820180604052508101906120d09190612745565b60015b612156573d8060008114612103576040519150601f19603f3d011682016040523d82523d6000602084013e612108565b606091505b5060008151141561214e576040517f08c379a000000000000000000000000000000000000000000000000000000000815260040161214590612cb8565b60405180910390fd5b805181602001fd5b63150b7a0260e01b7bffffffffffffffffffffffffffffffffffffffffffffffffffffffff1916817bffffffffffffffffffffffffffffffffffffffffffffffffffffffff1916149150506121ab565b600190505b949350505050565b505050565b600073ffffffffffffffffffffffffffffffffffffffff168273ffffffffffffffffffffffffffffffffffffffff161415612228576040517f08c379a000000000000000000000000000000000000000000000000000000000815260040161221f90612df8565b60405180910390fd5b612231816112fb565b15612271576040517f08c379a000000000000000000000000000000000000000000000000000000000815260040161226890612cf8565b60405180910390fd5b61227d60008383611f69565b6001600360008473ffffffffffffffffffffffffffffffffffffffff1673ffffffffffffffffffffffffffffffffffffffff16815260200190815260200160002060008282546122cd919061301b565b92505081905550816002600083815260200190815260200160002060006101000a81548173ffffffffffffffffffffffffffffffffffffffff021916908373ffffffffffffffffffffffffffffffffffffffff160217905550808273ffffffffffffffffffffffffffffffffffffffff16600073ffffffffffffffffffffffffffffffffffffffff167fddf252ad1be2c89b69c2b068fc378daa952ba7f163c4a11628f55a4df523b3ef60405160405180910390a45050565b600080823b905060008111915050919050565b8280546123a5906131aa565b90600052602060002090601f0160209004810192826123c7576000855561240e565b82601f106123e057805160ff191683800117855561240e565b8280016001018555821561240e579182015b8281111561240d5782518255916020019190600101906123f2565b5b50905061241b919061241f565b5090565b5b80821115612438576000816000905550600101612420565b5090565b600061244f61244a84612f76565b612f51565b90508281526020810184848401111561246757600080fd5b612472848285613168565b509392505050565b600061248d61248884612fa7565b612f51565b9050828152602081018484840111156124a557600080fd5b6124b0848285613168565b509392505050565b6000813590506124c78161384d565b92915050565b6000813590506124dc81613864565b92915050565b6000813590506124f18161387b565b92915050565b6000815190506125068161387b565b92915050565b600082601f83011261251d57600080fd5b813561252d84826020860161243c565b91505092915050565b600082601f83011261254757600080fd5b813561255784826020860161247a565b91505092915050565b60008135905061256f81613892565b92915050565b60006020828403121561258757600080fd5b6000612595848285016124b8565b91505092915050565b600080604083850312156125b157600080fd5b60006125bf858286016124b8565b92505060206125d0858286016124b8565b9150509250929050565b6000806000606084860312156125ef57600080fd5b60006125fd868287016124b8565b935050602061260e868287016124b8565b925050604061261f86828701612560565b9150509250925092565b6000806000806080858703121561263f57600080fd5b600061264d878288016124b8565b945050602061265e878288016124b8565b935050604061266f87828801612560565b925050606085013567ffffffffffffffff81111561268c57600080fd5b6126988782880161250c565b91505092959194509250565b600080604083850312156126b757600080fd5b60006126c5858286016124b8565b92505060206126d6858286016124cd565b9150509250929050565b600080604083850312156126f357600080fd5b6000612701858286016124b8565b925050602061271285828601612560565b9150509250929050565b60006020828403121561272e57600080fd5b600061273c848285016124e2565b91505092915050565b60006020828403121561275757600080fd5b6000612765848285016124f7565b91505092915050565b60006020828403121561278057600080fd5b600082013567ffffffffffffffff81111561279a57600080fd5b6127a684828501612536565b91505092915050565b6000602082840312156127c157600080fd5b60006127cf84828501612560565b91505092915050565b6127e1816130d6565b82525050565b6127f0816130e8565b82525050565b600061280182612fd8565b61280b8185612fee565b935061281b818560208601613177565b61282481613343565b840191505092915050565b600061283a82612fe3565b6128448185612fff565b9350612854818560208601613177565b61285d81613343565b840191505092915050565b600061287382612fe3565b61287d8185613010565b935061288d818560208601613177565b80840191505092915050565b60006128a6601483612fff565b91506128b182613354565b602082019050919050565b60006128c9603283612fff565b91506128d48261337d565b604082019050919050565b60006128ec602683612fff565b91506128f7826133cc565b604082019050919050565b600061290f601c83612fff565b915061291a8261341b565b602082019050919050565b6000612932602483612fff565b915061293d82613444565b604082019050919050565b6000612955601983612fff565b915061296082613493565b602082019050919050565b6000612978602c83612fff565b9150612983826134bc565b604082019050919050565b600061299b601083612fff565b91506129a68261350b565b602082019050919050565b60006129be603883612fff565b91506129c982613534565b604082019050919050565b60006129e1602a83612fff565b91506129ec82613583565b604082019050919050565b6000612a04602983612fff565b9150612a0f826135d2565b604082019050919050565b6000612a27602083612fff565b9150612a3282613621565b602082019050919050565b6000612a4a602c83612fff565b9150612a558261364a565b604082019050919050565b6000612a6d602083612fff565b9150612a7882613699565b602082019050919050565b6000612a90602983612fff565b9150612a9b826136c2565b604082019050919050565b6000612ab3602f83612fff565b9150612abe82613711565b604082019050919050565b6000612ad6602183612fff565b9150612ae182613760565b604082019050919050565b6000612af9603183612fff565b9150612b04826137af565b604082019050919050565b6000612b1c603083612fff565b9150612b27826137fe565b604082019050919050565b612b3b81613120565b82525050565b612b4a8161314e565b82525050565b612b5981613158565b82525050565b6000612b6b8284612868565b915081905092915050565b6000612b828285612868565b9150612b8e8284612868565b91508190509392505050565b6000602082019050612baf60008301846127d8565b92915050565b6000608082019050612bca60008301876127d8565b612bd760208301866127d8565b612be46040830185612b41565b8181036060830152612bf681846127f6565b905095945050505050565b6000602082019050612c1660008301846127e7565b92915050565b60006020820190508181036000830152612c36818461282f565b905092915050565b600060a0820190508181036000830152612c58818861282f565b9050612c676020830187612b41565b612c746040830186612b50565b612c816060830185612b32565b612c8e6080830184612b32565b9695505050505050565b60006020820190508181036000830152612cb181612899565b9050919050565b60006020820190508181036000830152612cd1816128bc565b9050919050565b60006020820190508181036000830152612cf1816128df565b9050919050565b60006020820190508181036000830152612d1181612902565b9050919050565b60006020820190508181036000830152612d3181612925565b9050919050565b60006020820190508181036000830152612d5181612948565b9050919050565b60006020820190508181036000830152612d718161296b565b9050919050565b60006020820190508181036000830152612d918161298e565b9050919050565b60006020820190508181036000830152612db1816129b1565b9050919050565b60006020820190508181036000830152612dd1816129d4565b9050919050565b60006020820190508181036000830152612df1816129f7565b9050919050565b60006020820190508181036000830152612e1181612a1a565b9050919050565b60006020820190508181036000830152612e3181612a3d565b9050919050565b60006020820190508181036000830152612e5181612a60565b9050919050565b60006020820190508181036000830152612e7181612a83565b9050919050565b60006020820190508181036000830152612e9181612aa6565b9050919050565b60006020820190508181036000830152612eb181612ac9565b9050919050565b60006020820190508181036000830152612ed181612aec565b9050919050565b60006020820190508181036000830152612ef181612b0f565b9050919050565b6000602082019050612f0d6000830184612b41565b92915050565b6000606082019050612f286000830186612b41565b8181036020830152612f3a818561282f565b9050612f496040830184612b41565b949350505050565b6000612f5b612f6c565b9050612f6782826131dc565b919050565b6000604051905090565b600067ffffffffffffffff821115612f9157612f90613314565b5b612f9a82613343565b9050602081019050919050565b600067ffffffffffffffff821115612fc257612fc1613314565b5b612fcb82613343565b9050602081019050919050565b600081519050919050565b600081519050919050565b600082825260208201905092915050565b600082825260208201905092915050565b600081905092915050565b60006130268261314e565b91506130318361314e565b9250827fffffffffffffffffffffffffffffffffffffffffffffffffffffffffffffffff0382111561306657613065613287565b5b828201905092915050565b600061307c8261314e565b91506130878361314e565b925082613097576130966132b6565b5b828204905092915050565b60006130ad8261314e565b91506130b88361314e565b9250828210156130cb576130ca613287565b5b828203905092915050565b60006130e18261312e565b9050919050565b60008115159050919050565b60007fffffffff0000000000000000000000000000000000000000000000000000000082169050919050565b600061ffff82169050919050565b600073ffffffffffffffffffffffffffffffffffffffff82169050919050565b6000819050919050565b600063ffffffff82169050919050565b82818337600083830152505050565b60005b8381101561319557808201518184015260208101905061317a565b838111156131a4576000848401525b50505050565b600060028204905060018216806131c257607f821691505b602082108114156131d6576131d56132e5565b5b50919050565b6131e582613343565b810181811067ffffffffffffffff8211171561320457613203613314565b5b80604052505050565b60006132188261314e565b91507fffffffffffffffffffffffffffffffffffffffffffffffffffffffffffffffff82141561324b5761324a613287565b5b600182019050919050565b60006132618261314e565b915061326c8361314e565b92508261327c5761327b6132b6565b5b828206905092915050565b7f4e487b7100000000000000000000000000000000000000000000000000000000600052601160045260246000fd5b7f4e487b7100000000000000000000000000000000000000000000000000000000600052601260045260246000fd5b7f4e487b7100000000000000000000000000000000000000000000000000000000600052602260045260246000fd5b7f4e487b7100000000000000000000000000000000000000000000000000000000600052604160045260246000fd5b6000601f19601f8301169050919050565b7f5061757361626c653a206e6f7420706175736564000000000000000000000000600082015250565b7f4552433732313a207472616e7366657220746f206e6f6e20455243373231526560008201527f63656976657220696d706c656d656e7465720000000000000000000000000000602082015250565b7f4f776e61626c653a206e6577206f776e657220697320746865207a65726f206160008201527f6464726573730000000000000000000000000000000000000000000000000000602082015250565b7f4552433732313a20746f6b656e20616c7265616479206d696e74656400000000600082015250565b7f4552433732313a207472616e7366657220746f20746865207a65726f2061646460008201527f7265737300000000000000000000000000000000000000000000000000000000602082015250565b7f4552433732313a20617070726f766520746f2063616c6c657200000000000000600082015250565b7f4552433732313a206f70657261746f7220717565727920666f72206e6f6e657860008201527f697374656e7420746f6b656e0000000000000000000000000000000000000000602082015250565b7f5061757361626c653a2070617573656400000000000000000000000000000000600082015250565b7f4552433732313a20617070726f76652063616c6c6572206973206e6f74206f7760008201527f6e6572206e6f7220617070726f76656420666f7220616c6c0000000000000000602082015250565b7f4552433732313a2062616c616e636520717565727920666f7220746865207a6560008201527f726f206164647265737300000000000000000000000000000000000000000000602082015250565b7f4552433732313a206f776e657220717565727920666f72206e6f6e657869737460008201527f656e7420746f6b656e0000000000000000000000000000000000000000000000602082015250565b7f4552433732313a206d696e7420746f20746865207a65726f2061646472657373600082015250565b7f4552433732313a20617070726f76656420717565727920666f72206e6f6e657860008201527f697374656e7420746f6b656e0000000000000000000000000000000000000000602082015250565b7f4f776e61626c653a2063616c6c6572206973206e6f7420746865206f776e6572600082015250565b7f4552433732313a207472616e73666572206f6620746f6b656e2074686174206960008201527f73206e6f74206f776e0000000000000000000000000000000000000000000000602082015250565b7f4552433732314d657461646174613a2055524920717565727920666f72206e6f60008201527f6e6578697374656e7420746f6b656e0000000000000000000000000000000000602082015250565b7f4552433732313a20617070726f76616c20746f2063757272656e74206f776e6560008201527f7200000000000000000000000000000000000000000000000000000000000000602082015250565b7f4552433732313a207472616e736665722063616c6c6572206973206e6f74206f60008201527f776e6572206e6f7220617070726f766564000000000000000000000000000000602082015250565b7f4552433732314275726e61626c653a2063616c6c6572206973206e6f74206f7760008201527f6e6572206e6f7220617070726f76656400000000000000000000000000000000602082015250565b613856816130d6565b811461386157600080fd5b50565b61386d816130e8565b811461387857600080fd5b50565b613884816130f4565b811461388f57600080fd5b50565b61389b8161314e565b81146138a657600080fd5b5056fea26469706673582212201f1d5845aabdbe1cde652e01da695f80372d146792460065895982d928bb502f64736f6c63430008040033",
  "immutableReferences": {},
  "source": "// SPDX-License-Identifier: MIT\n// monmo_2021_solidity_tests\npragma solidity ^0.8.2;\n\nimport \"@openzeppelin/contracts/token/ERC721/ERC721.sol\";\nimport \"@openzeppelin/contracts/token/ERC721/IERC721.sol\";\nimport \"@openzeppelin/contracts/token/ERC20/ERC20.sol\";\nimport \"@openzeppelin/contracts/token/ERC20/extensions/ERC20Burnable.sol\";\nimport \"@openzeppelin/contracts/token/ERC20/extensions/draft-ERC20Permit.sol\";\nimport \"@openzeppelin/contracts/security/Pausable.sol\";\nimport \"@openzeppelin/contracts/access/Ownable.sol\";\nimport \"@openzeppelin/contracts/token/ERC721/extensions/ERC721Burnable.sol\";\nimport \"@openzeppelin/contracts/utils/Counters.sol\";\n\n\n/**\n * @title CalvaToken\n * @notice Implementa el token ERC20 como moneda de cambio.\n */\ncontract CalvaToken is ERC20, ERC20Burnable, Pausable, Ownable, ERC20Permit {\n    constructor() ERC20(\"CalvaToken\", \"CLV\") ERC20Permit(\"CalvaToken\") {\n        //se enva 1m de token iniciales a la cuenta del creador del contrato.\n        _mint(msg.sender, 1000000 * 10 ** decimals());\n    }\n\n    function pause() public onlyOwner {\n        _pause();\n    }\n\n    function unpause() public onlyOwner {\n        _unpause();\n    }\n\n    function mint(address to, uint256 amount) public onlyOwner {\n        _mint(to, amount);\n    }\n\n    function _beforeTokenTransfer(address from, address to, uint256 amount)\n        internal\n        whenNotPaused\n        override\n    {\n        super._beforeTokenTransfer(from, to, amount);\n    }\n}\n\n/**\n * @title CalvaToken\n * @notice Implementa el token ERC20 como moneda de cambio.\n */\ncontract Pakos is ERC721, Pausable, Ownable, ERC721Burnable {\n    using Counters for Counters.Counter;\n\n    Counters.Counter private _tokenIdCounter;\n\n    constructor() ERC721(\"Pakos\", \"PAKO\") {}\n    \n    event NewPakos(uint pakoId, string name, uint dna);\n    \n    uint dnaDigits = 16;\n    uint dnaModulus = 10 ** dnaDigits;\n    uint cooldownTime = 1 days;\n    \n    struct Pako {\n        string name;\n        uint dna;\n        uint32 readyTime;\n        uint16 winCount;\n        uint16 lossCount;\n    }\n    \n    Pako[] public pakos;\n    \n    mapping (uint => address) public pakoToOwner;\n    mapping ( address => uint) ownerPakoCount;\n    \n    function _createPako(string memory _name, uint _dna) private {\n        pakos.push(Pako(_name, _dna, 1, uint16(block.timestamp + cooldownTime), 0));\n        uint id = pakos.length -1;\n        pakoToOwner[id] = msg.sender;\n        ownerPakoCount[msg.sender] = ownerPakoCount[msg.sender]++;\n        emit NewPakos(id, _name, _dna);\n    }\n    \n    \n  function _generateRandomDna(string memory _str) private view returns (uint) {\n    uint rand = uint(keccak256(abi.encodePacked(_str)));\n    return rand % dnaModulus;\n  }\n\n  function createRandomPako(string memory _name) public {\n    require(ownerPakoCount[msg.sender] == 0);\n    uint randDna = _generateRandomDna(_name);\n    randDna = randDna - randDna % 100;\n    _createPako(_name, randDna);\n  }\n\n    function safeMint(address to) public onlyOwner {\n        _safeMint(to, _tokenIdCounter.current());\n        _tokenIdCounter.increment();\n    }\n\n    function pause() public onlyOwner {\n        _pause();\n    }\n\n    function unpause() public onlyOwner {\n        _unpause();\n    }\n\n    function _beforeTokenTransfer(address from, address to, uint256 tokenId)\n        internal\n        whenNotPaused\n        override\n    {\n        super._beforeTokenTransfer(from, to, tokenId);\n    }\n}\n\n/**\n * @title Classifieds\n * @notice Implementa los anuncios. El mercado se regir por los CalvaToken generados\n * como moneda de cambio y un token ERC721 (Pakos) que representa la propiedad\n * de los artculos que se comercializan.\n * \n * Solo los anuncios para vender artculos son implementados. La tokenizacin\n * del artculo es responsabilidad del token ERC721 que debe codificar los \n * detalles del artculo.\n */\ncontract Classifieds {\n    event TradeStatusChange(uint256 ad, bytes32 status);\n\n    IERC20 currencyToken;\n    IERC721 itemToken;\n\n    struct Trade {\n        address poster;\n        uint256 item;\n        uint256 price;\n        bytes32 status; // Open, Executed, Cancelled\n    }\n\n    mapping(uint256 => Trade) public trades;\n\n    uint256 tradeCounter;\n\n   constructor (address _currencyTokenAddress, address _itemTokenAddress)\n        public payable\n    {\n        currencyToken = IERC20(_currencyTokenAddress);\n        itemToken = IERC721(_itemTokenAddress);\n        tradeCounter = 0;\n    }\n\n    /**\n     * @dev Returns the details for a trade.\n     * @param _trade The id for the trade.\n     */\n    function getTrade(uint256 _trade)\n        public\n        virtual\n        view\n        returns(address, uint256, uint256, bytes32)\n    {\n        Trade memory trade = trades[_trade];\n        return (trade.poster, trade.item, trade.price, trade.status);\n    }\n\n    /**\n     * @dev Opens a new trade. Puts _item in escrow.\n     * @param _item The id for the item to trade.\n     * @param _price The amount of currency for which to trade the item.\n     */\n    function openTrade(uint256 _item, uint256 _price)\n        public\n        virtual\n    {\n        itemToken.transferFrom(msg.sender, address(this), _item);\n        trades[tradeCounter] = Trade({\n            poster: msg.sender,\n            item: _item,\n            price: _price,\n            status: \"Open\"\n        });\n        tradeCounter += 1;\n        emit TradeStatusChange(tradeCounter - 1, \"Open\");\n    }\n\n    /**\n     * @dev Executes a trade. Must have approved this contract to transfer the\n     * amount of currency specified to the poster. Transfers ownership of the\n     * item to the filler.\n     * @param _trade The id of an existing trade\n     */\n    function executeTrade(uint256 _trade)\n        public\n        virtual\n    {\n        Trade memory trade = trades[_trade];\n        require(trade.status == \"Open\", \"Trade is not Open.\");\n        currencyToken.transferFrom(msg.sender, trade.poster, trade.price);\n        itemToken.transferFrom(address(this), msg.sender, trade.item);\n        trades[_trade].status = \"Executed\";\n        emit TradeStatusChange(_trade, \"Executed\");\n    }\n\n    /**\n     * @dev Cancels a trade by the poster.\n     * @param _trade The trade to be cancelled.\n     */\n    function cancelTrade(uint256 _trade)\n        public\n        virtual\n    {\n        Trade memory trade = trades[_trade];\n        require(\n            msg.sender == trade.poster,\n            \"Trade can be cancelled only by poster.\"\n        );\n        require(trade.status == \"Open\", \"Trade is not Open.\");\n        itemToken.transferFrom(address(this), trade.poster, trade.item);\n        trades[_trade].status = \"Cancelled\";\n        emit TradeStatusChange(_trade, \"Cancelled\");\n    }\n}",
  "sourcePath": "/Users/Jonsui/Documents/GitHub/Pakos-Eth-Token/contracts/PakosERC721Ful.sol",
  "compiler": {
    "name": "solc",
    "version": "0.8.4+commit.c7e474f2.Emscripten.clang"
  },
  "schemaVersion": "3.4.2",
  "updatedAt": "2021-07-24T13:45:21.130Z",
  "devdoc": {
    "kind": "dev",
    "methods": {
      "approve(address,uint256)": {
        "details": "See {IERC721-approve}."
      },
      "balanceOf(address)": {
        "details": "See {IERC721-balanceOf}."
      },
      "burn(uint256)": {
        "details": "Burns `tokenId`. See {ERC721-_burn}. Requirements: - The caller must own `tokenId` or be an approved operator."
      },
      "getApproved(uint256)": {
        "details": "See {IERC721-getApproved}."
      },
      "isApprovedForAll(address,address)": {
        "details": "See {IERC721-isApprovedForAll}."
      },
      "name()": {
        "details": "See {IERC721Metadata-name}."
      },
      "owner()": {
        "details": "Returns the address of the current owner."
      },
      "ownerOf(uint256)": {
        "details": "See {IERC721-ownerOf}."
      },
      "paused()": {
        "details": "Returns true if the contract is paused, and false otherwise."
      },
      "renounceOwnership()": {
        "details": "Leaves the contract without owner. It will not be possible to call `onlyOwner` functions anymore. Can only be called by the current owner. NOTE: Renouncing ownership will leave the contract without an owner, thereby removing any functionality that is only available to the owner."
      },
      "safeTransferFrom(address,address,uint256)": {
        "details": "See {IERC721-safeTransferFrom}."
      },
      "safeTransferFrom(address,address,uint256,bytes)": {
        "details": "See {IERC721-safeTransferFrom}."
      },
      "setApprovalForAll(address,bool)": {
        "details": "See {IERC721-setApprovalForAll}."
      },
      "supportsInterface(bytes4)": {
        "details": "See {IERC165-supportsInterface}."
      },
      "symbol()": {
        "details": "See {IERC721Metadata-symbol}."
      },
      "tokenURI(uint256)": {
        "details": "See {IERC721Metadata-tokenURI}."
      },
      "transferFrom(address,address,uint256)": {
        "details": "See {IERC721-transferFrom}."
      },
      "transferOwnership(address)": {
        "details": "Transfers ownership of the contract to a new account (`newOwner`). Can only be called by the current owner."
      }
    },
    "title": "CalvaToken",
    "version": 1
  },
  "userdoc": {
    "kind": "user",
    "methods": {},
    "notice": "Implementa el token ERC20 como moneda de cambio.",
    "version": 1
  }
}